{
  "contractName": "Crowdsale",
  "abi": [
    {
      "constant": true,
      "inputs": [
        {
          "name": "",
          "type": "uint256"
        }
      ],
      "name": "structurePreIco",
      "outputs": [
        {
          "name": "bonus",
          "type": "uint256"
        },
        {
          "name": "balance",
          "type": "uint256"
        }
      ],
      "payable": false,
      "stateMutability": "view",
      "type": "function"
    },
    {
      "constant": true,
      "inputs": [
        {
          "name": "_value",
          "type": "uint256"
        }
      ],
      "name": "tokensCount",
      "outputs": [
        {
          "name": "res",
          "type": "uint256"
        }
      ],
      "payable": false,
      "stateMutability": "view",
      "type": "function"
    },
    {
      "constant": true,
      "inputs": [
        {
          "name": "_time",
          "type": "uint256"
        }
      ],
      "name": "isIco",
      "outputs": [
        {
          "name": "",
          "type": "bool"
        }
      ],
      "payable": false,
      "stateMutability": "view",
      "type": "function"
    },
    {
      "constant": true,
      "inputs": [],
      "name": "preIcoEnded",
      "outputs": [
        {
          "name": "",
          "type": "bool"
        }
      ],
      "payable": false,
      "stateMutability": "view",
      "type": "function"
    },
    {
      "constant": false,
      "inputs": [
        {
          "name": "_newSupport",
          "type": "address"
        }
      ],
      "name": "transferTechSupport",
      "outputs": [],
      "payable": false,
      "stateMutability": "nonpayable",
      "type": "function"
    },
    {
      "constant": true,
      "inputs": [],
      "name": "preIcoStart",
      "outputs": [
        {
          "name": "",
          "type": "uint256"
        }
      ],
      "payable": false,
      "stateMutability": "view",
      "type": "function"
    },
    {
      "constant": true,
      "inputs": [],
      "name": "isIcoTrue",
      "outputs": [
        {
          "name": "",
          "type": "bool"
        }
      ],
      "payable": false,
      "stateMutability": "view",
      "type": "function"
    },
    {
      "constant": true,
      "inputs": [],
      "name": "getEtherBalanceOnCrowdsale",
      "outputs": [
        {
          "name": "",
          "type": "uint256"
        }
      ],
      "payable": false,
      "stateMutability": "view",
      "type": "function"
    },
    {
      "constant": true,
      "inputs": [
        {
          "name": "_time",
          "type": "uint256"
        }
      ],
      "name": "isPreIco",
      "outputs": [
        {
          "name": "",
          "type": "bool"
        }
      ],
      "payable": false,
      "stateMutability": "view",
      "type": "function"
    },
    {
      "constant": true,
      "inputs": [],
      "name": "preIcoTokensSold",
      "outputs": [
        {
          "name": "",
          "type": "uint256"
        }
      ],
      "payable": false,
      "stateMutability": "view",
      "type": "function"
    },
    {
      "constant": true,
      "inputs": [],
      "name": "tokensSold",
      "outputs": [
        {
          "name": "",
          "type": "uint256"
        }
      ],
      "payable": false,
      "stateMutability": "view",
      "type": "function"
    },
    {
      "constant": false,
      "inputs": [],
      "name": "refund",
      "outputs": [],
      "payable": false,
      "stateMutability": "nonpayable",
      "type": "function"
    },
    {
      "constant": true,
      "inputs": [
        {
          "name": "",
          "type": "uint256"
        }
      ],
      "name": "structureIco",
      "outputs": [
        {
          "name": "bonus",
          "type": "uint256"
        },
        {
          "name": "balance",
          "type": "uint256"
        }
      ],
      "payable": false,
      "stateMutability": "view",
      "type": "function"
    },
    {
      "constant": false,
      "inputs": [
        {
          "name": "_address",
          "type": "address"
        },
        {
          "name": "_value",
          "type": "uint256"
        }
      ],
      "name": "sendEtherManually",
      "outputs": [],
      "payable": false,
      "stateMutability": "nonpayable",
      "type": "function"
    },
    {
      "constant": true,
      "inputs": [],
      "name": "iCoTokensSold",
      "outputs": [
        {
          "name": "",
          "type": "uint256"
        }
      ],
      "payable": false,
      "stateMutability": "view",
      "type": "function"
    },
    {
      "constant": false,
      "inputs": [],
      "name": "acceptOwnership",
      "outputs": [],
      "payable": false,
      "stateMutability": "nonpayable",
      "type": "function"
    },
    {
      "constant": true,
      "inputs": [],
      "name": "preIcoFinish",
      "outputs": [
        {
          "name": "",
          "type": "uint256"
        }
      ],
      "payable": false,
      "stateMutability": "view",
      "type": "function"
    },
    {
      "constant": true,
      "inputs": [],
      "name": "tokenPrice",
      "outputs": [
        {
          "name": "",
          "type": "uint256"
        }
      ],
      "payable": false,
      "stateMutability": "view",
      "type": "function"
    },
    {
      "constant": true,
      "inputs": [],
      "name": "icoStart",
      "outputs": [
        {
          "name": "",
          "type": "uint256"
        }
      ],
      "payable": false,
      "stateMutability": "view",
      "type": "function"
    },
    {
      "constant": true,
      "inputs": [],
      "name": "owner",
      "outputs": [
        {
          "name": "",
          "type": "address"
        }
      ],
      "payable": false,
      "stateMutability": "view",
      "type": "function"
    },
    {
      "constant": false,
      "inputs": [],
      "name": "acceptSupport",
      "outputs": [],
      "payable": false,
      "stateMutability": "nonpayable",
      "type": "function"
    },
    {
      "constant": true,
      "inputs": [
        {
          "name": "",
          "type": "address"
        }
      ],
      "name": "investorBalances",
      "outputs": [
        {
          "name": "",
          "type": "uint256"
        }
      ],
      "payable": false,
      "stateMutability": "view",
      "type": "function"
    },
    {
      "constant": true,
      "inputs": [],
      "name": "icoFinish",
      "outputs": [
        {
          "name": "",
          "type": "uint256"
        }
      ],
      "payable": false,
      "stateMutability": "view",
      "type": "function"
    },
    {
      "constant": true,
      "inputs": [],
      "name": "ethCollected",
      "outputs": [
        {
          "name": "",
          "type": "uint256"
        }
      ],
      "payable": false,
      "stateMutability": "view",
      "type": "function"
    },
    {
      "constant": true,
      "inputs": [],
      "name": "techSupport",
      "outputs": [
        {
          "name": "",
          "type": "address"
        }
      ],
      "payable": false,
      "stateMutability": "view",
      "type": "function"
    },
    {
      "constant": true,
      "inputs": [],
      "name": "newOwner",
      "outputs": [
        {
          "name": "",
          "type": "address"
        }
      ],
      "payable": false,
      "stateMutability": "view",
      "type": "function"
    },
    {
      "constant": true,
      "inputs": [],
      "name": "newTechSupport",
      "outputs": [
        {
          "name": "",
          "type": "address"
        }
      ],
      "payable": false,
      "stateMutability": "view",
      "type": "function"
    },
    {
      "constant": false,
      "inputs": [],
      "name": "finishIco",
      "outputs": [],
      "payable": false,
      "stateMutability": "nonpayable",
      "type": "function"
    },
    {
      "constant": false,
      "inputs": [
        {
          "name": "_newOwner",
          "type": "address"
        }
      ],
      "name": "transferOwnership",
      "outputs": [],
      "payable": false,
      "stateMutability": "nonpayable",
      "type": "function"
    },
    {
      "constant": true,
      "inputs": [],
      "name": "token",
      "outputs": [
        {
          "name": "",
          "type": "address"
        }
      ],
      "payable": false,
      "stateMutability": "view",
      "type": "function"
    },
    {
      "inputs": [
        {
          "name": "_tokenAddress",
          "type": "address"
        },
        {
          "name": "_addressOwner",
          "type": "address"
        }
      ],
      "payable": false,
      "stateMutability": "nonpayable",
      "type": "constructor"
    },
    {
      "payable": true,
      "stateMutability": "payable",
      "type": "fallback"
    }
  ],
  "bytecode": "0x606060405260026004556200002c600a60045462000771640100000000026200198d176401000000009004565b66071afd498d00008115156200003e57fe5b0460085567016345785d8a0000600955635a613500600a55635ab1a080600b55635ab1a081600c55635b2c3c00600d5562000091600a60045462000771640100000000026200198d176401000000009004565b620493e002600e556000600f556000601055600060115560006012556000601460006101000a81548160ff0219169083151502179055503415620000d457600080fd5b604051604080620024f583398101604052808051906020019091908051906020019091905050336000806101000a81548173ffffffffffffffffffffffffffffffffffffffff021916908373ffffffffffffffffffffffffffffffffffffffff16021790555081600560006101000a81548173ffffffffffffffffffffffffffffffffffffffff021916908373ffffffffffffffffffffffffffffffffffffffff160217905550806000806101000a81548173ffffffffffffffffffffffffffffffffffffffff021916908373ffffffffffffffffffffffffffffffffffffffff16021790555060068054806001018281620001d191906200077e565b916000526020600020906002020160006040805190810160405280640cef5e80e381526020016200021a600a60045462000771640100000000026200198d176401000000009004565b620f42400281525090919091506000820151816000015560208201518160010155505050600680548060010182816200025491906200077e565b916000526020600020906002020160006040805190810160405280640db227d3c381526020016200029d600a60045462000771640100000000026200198d176401000000009004565b620f4240028152509091909150600082015181600001556020820151816001015550505060068054806001018281620002d791906200077e565b916000526020600020906002020160006040805190810160405280640e8d4a5100815260200162000320600a60045462000771640100000000026200198d176401000000009004565b620f42400281525090919091506000820151816000015560208201518160010155505050600680548060010182816200035a91906200077e565b916000526020600020906002020160006040805190810160405280640f85a49aaa8152602001620003a3600a60045462000771640100000000026200198d176401000000009004565b620f4240028152509091909150600082015181600001556020820151816001015550505060068054806001018281620003dd91906200077e565b9160005260206000209060020201600060408051908101604052806410a1798124815260200162000426600a60045462000771640100000000026200198d176401000000009004565b620f42400281525090919091506000820151816000015560208201518160010155505050600680548060010182816200046091906200077e565b9160005260206000209060020201600060408051908101604052806411e8f9013b8152602001620004a9600a60045462000771640100000000026200198d176401000000009004565b620f4240028152509091909150600082015181600001556020820151816001015550505060078054806001018281620004e391906200077e565b9160005260206000209060020201600060408051908101604052806413670dc15581526020016200052c600a60045462000771640100000000026200198d176401000000009004565b629896800281525090919091506000820151816000015560208201518160010155505050600780548060010182816200056691906200077e565b91600052602060002090600202016000604080519081016040528064152a9aa45d8152602001620005af600a60045462000771640100000000026200198d176401000000009004565b62989680028152509091909150600082015181600001556020820151816001015550505060078054806001018281620005e991906200077e565b91600052602060002090600202016000604080519081016040528064174876e800815260200162000632600a60045462000771640100000000026200198d176401000000009004565b62989680028152509091909150600082015181600001556020820151816001015550505033600260006101000a81548173ffffffffffffffffffffffffffffffffffffffff021916908373ffffffffffffffffffffffffffffffffffffffff160217905550600560009054906101000a900473ffffffffffffffffffffffffffffffffffffffff1673ffffffffffffffffffffffffffffffffffffffff16636596cff3306040518263ffffffff167c0100000000000000000000000000000000000000000000000000000000028152600401808273ffffffffffffffffffffffffffffffffffffffff1673ffffffffffffffffffffffffffffffffffffffff168152602001915050600060405180830381600087803b15156200075457600080fd5b6102c65a03f115156200076657600080fd5b5050505050620007e5565b600081830a905092915050565b815481835581811511620007ae57600202816002028360005260206000209182019101620007ad9190620007b3565b5b505050565b620007e291905b80821115620007de57600080820160009055600182016000905550600201620007ba565b5090565b90565b611d0080620007f56000396000f300606060405260043610610180576000357c0100000000000000000000000000000000000000000000000000000000900463ffffffff168063049540c5146101cf57806309671f791461020d5780630a1e71de146102445780631813b6841461027f5780632184fe2c146102ac5780633d741994146102e55780633fd0f7271461030e57806340e5f3cb1461033b578063414b85e41461036457806346e2a1741461039f578063518ab2a8146103c8578063590e1ae3146103f1578063604e5fb814610406578063659d7aaa1461044457806368fb81b71461048657806379ba5097146104af5780637d57a85c146104c45780637ff9b596146104ed578063827037db146105165780638da5cb5b1461053f578063944126f414610594578063b29a61c1146105a9578063b333ce0d146105f6578063bee2e1341461061f578063d459654a14610648578063d4ee1d901461069d578063e3d13592146106f2578063ec42f82f14610747578063f2fde38b1461075c578063fc0c546a14610795575b600954341015151561019157600080fd5b61019a426107ea565b806101aa57506101a942610818565b5b15156101b557600080fd5b6101c23334426000610846565b15156101cd57600080fd5b005b34156101da57600080fd5b6101f06004808035906020019091905050610d0b565b604051808381526020018281526020019250505060405180910390f35b341561021857600080fd5b61022e6004808035906020019091905050610d3e565b6040518082815260200191505060405180910390f35b341561024f57600080fd5b61026560048080359060200190919050506107ea565b604051808215151515815260200191505060405180910390f35b341561028a57600080fd5b610292610dde565b604051808215151515815260200191505060405180910390f35b34156102b757600080fd5b6102e3600480803573ffffffffffffffffffffffffffffffffffffffff16906020019091905050610df1565b005b34156102f057600080fd5b6102f8610ee8565b6040518082815260200191505060405180910390f35b341561031957600080fd5b610321610eee565b604051808215151515815260200191505060405180910390f35b341561034657600080fd5b61034e610f0e565b6040518082815260200191505060405180910390f35b341561036f57600080fd5b6103856004808035906020019091905050610818565b604051808215151515815260200191505060405180910390f35b34156103aa57600080fd5b6103b2610f2d565b6040518082815260200191505060405180910390f35b34156103d357600080fd5b6103db610f33565b6040518082815260200191505060405180910390f35b34156103fc57600080fd5b610404610f39565b005b341561041157600080fd5b61042760048080359060200190919050506110f9565b604051808381526020018281526020019250505060405180910390f35b341561044f57600080fd5b610484600480803573ffffffffffffffffffffffffffffffffffffffff1690602001909190803590602001909190505061112c565b005b341561049157600080fd5b6104996111a4565b6040518082815260200191505060405180910390f35b34156104ba57600080fd5b6104c26111aa565b005b34156104cf57600080fd5b6104d7611265565b6040518082815260200191505060405180910390f35b34156104f857600080fd5b61050061126b565b6040518082815260200191505060405180910390f35b341561052157600080fd5b610529611271565b6040518082815260200191505060405180910390f35b341561054a57600080fd5b610552611277565b604051808273ffffffffffffffffffffffffffffffffffffffff1673ffffffffffffffffffffffffffffffffffffffff16815260200191505060405180910390f35b341561059f57600080fd5b6105a761129c565b005b34156105b457600080fd5b6105e0600480803573ffffffffffffffffffffffffffffffffffffffff16906020019091905050611358565b6040518082815260200191505060405180910390f35b341561060157600080fd5b610609611370565b6040518082815260200191505060405180910390f35b341561062a57600080fd5b610632611376565b6040518082815260200191505060405180910390f35b341561065357600080fd5b61065b61137c565b604051808273ffffffffffffffffffffffffffffffffffffffff1673ffffffffffffffffffffffffffffffffffffffff16815260200191505060405180910390f35b34156106a857600080fd5b6106b06113a2565b604051808273ffffffffffffffffffffffffffffffffffffffff1673ffffffffffffffffffffffffffffffffffffffff16815260200191505060405180910390f35b34156106fd57600080fd5b6107056113c8565b604051808273ffffffffffffffffffffffffffffffffffffffff1673ffffffffffffffffffffffffffffffffffffffff16815260200191505060405180910390f35b341561075257600080fd5b61075a6113ee565b005b341561076757600080fd5b610793600480803573ffffffffffffffffffffffffffffffffffffffff169060200190919050506115df565b005b34156107a057600080fd5b6107a86116ba565b604051808273ffffffffffffffffffffffffffffffffffffffff1673ffffffffffffffffffffffffffffffffffffffff16815260200191505060405180910390f35b600081600c54111580156108005750600d548211155b1561080e5760019050610813565b600090505b919050565b600081600a541115801561082e5750600b548211155b1561083c5760019050610841565b600090505b919050565b60008060008061085586610818565b1561096457610863876116e0565b8093508194505050610878600a60045461198d565b603202831015151561088657fe5b82600f60008282540192505081905550600082141580156108a5575084155b156108eb578773ffffffffffffffffffffffffffffffffffffffff166108fc839081150290604051600060405180830381858888f1935050505015156108ea57600080fd5b5b6000809054906101000a900473ffffffffffffffffffffffffffffffffffffffff1673ffffffffffffffffffffffffffffffffffffffff166108fc3073ffffffffffffffffffffffffffffffffffffffff16319081150290604051600060405180830381858888f19350505050151561096357600080fd5b5b61096d866107ea565b15610be757601460009054906101000a900460ff161515610a7057600090505b600680549050811015610a54576109f56006828154811015156109ac57fe5b90600052602060002090600202016001015460076001600780549050038154811015156109d557fe5b90600052602060002090600202016001015461199a90919063ffffffff16565b6007600160078054905003815481101515610a0c57fe5b9060005260206000209060020201600101819055506000600682815481101515610a3257fe5b906000526020600020906002020160010181905550808060010191505061098d565b6001601460006101000a81548160ff0219169083151502179055505b610a79876119b8565b8093508194505050610a8e600a60045461198d565b6032028310151515610a9c57fe5b8260106000828254019250508190555060008214158015610abb575084155b15610b01578773ffffffffffffffffffffffffffffffffffffffff166108fc839081150290604051600060405180830381858888f193505050501515610b0057600080fd5b5b610b148288611c6a90919063ffffffff16565b601360008a73ffffffffffffffffffffffffffffffffffffffff1673ffffffffffffffffffffffffffffffffffffffff16815260200190815260200160002060008282540192505081905550610b68610eee565b15610be6576000809054906101000a900473ffffffffffffffffffffffffffffffffffffffff1673ffffffffffffffffffffffffffffffffffffffff166108fc3073ffffffffffffffffffffffffffffffffffffffff16319081150290604051600060405180830381858888f193505050501515610be557600080fd5b5b5b82601160008282540192505081905550600560009054906101000a900473ffffffffffffffffffffffffffffffffffffffff1673ffffffffffffffffffffffffffffffffffffffff166340c3418c89856040518363ffffffff167c0100000000000000000000000000000000000000000000000000000000028152600401808373ffffffffffffffffffffffffffffffffffffffff1673ffffffffffffffffffffffffffffffffffffffff16815260200182815260200192505050600060405180830381600087803b1515610cbb57600080fd5b6102c65a03f11515610ccc57600080fd5b505050610cf6610ce58389611c6a90919063ffffffff16565b60125461199a90919063ffffffff16565b60128190555060019350505050949350505050565b600681815481101515610d1a57fe5b90600052602060002090600202016000915090508060000154908060010154905082565b6000600260009054906101000a900473ffffffffffffffffffffffffffffffffffffffff1673ffffffffffffffffffffffffffffffffffffffff163373ffffffffffffffffffffffffffffffffffffffff16141515610d9c57600080fd5b610da542610818565b15610db957610db3826116e0565b50809150505b610dc2426107ea565b15610dd657610dd0826119b8565b50809150505b809050919050565b601460009054906101000a900460ff1681565b6000809054906101000a900473ffffffffffffffffffffffffffffffffffffffff1673ffffffffffffffffffffffffffffffffffffffff163373ffffffffffffffffffffffffffffffffffffffff161480610e995750600260009054906101000a900473ffffffffffffffffffffffffffffffffffffffff1673ffffffffffffffffffffffffffffffffffffffff163373ffffffffffffffffffffffffffffffffffffffff16145b1515610ea457600080fd5b80600360006101000a81548173ffffffffffffffffffffffffffffffffffffffff021916908373ffffffffffffffffffffffffffffffffffffffff16021790555050565b600a5481565b6000600e54601154101515610f065760019050610f0b565b600090505b90565b60003073ffffffffffffffffffffffffffffffffffffffff1631905090565b600f5481565b60115481565b610f41610eee565b151515610f4d57600080fd5b426203f480600d540111151515610f6357600080fd5b600560009054906101000a900473ffffffffffffffffffffffffffffffffffffffff1673ffffffffffffffffffffffffffffffffffffffff1663b237f7d4336040518263ffffffff167c0100000000000000000000000000000000000000000000000000000000028152600401808273ffffffffffffffffffffffffffffffffffffffff1673ffffffffffffffffffffffffffffffffffffffff168152602001915050600060405180830381600087803b151561101f57600080fd5b6102c65a03f1151561103057600080fd5b5050503373ffffffffffffffffffffffffffffffffffffffff166108fc601360003373ffffffffffffffffffffffffffffffffffffffff1673ffffffffffffffffffffffffffffffffffffffff168152602001908152602001600020549081150290604051600060405180830381858888f1935050505015156110b257600080fd5b6000601360003373ffffffffffffffffffffffffffffffffffffffff1673ffffffffffffffffffffffffffffffffffffffff16815260200190815260200160002081905550565b60078181548110151561110857fe5b90600052602060002090600202016000915090508060000154908060010154905082565b600260009054906101000a900473ffffffffffffffffffffffffffffffffffffffff1673ffffffffffffffffffffffffffffffffffffffff163373ffffffffffffffffffffffffffffffffffffffff1614151561118857600080fd5b6111958282426001610846565b15156111a057600080fd5b5050565b60105481565b600160009054906101000a900473ffffffffffffffffffffffffffffffffffffffff1673ffffffffffffffffffffffffffffffffffffffff163373ffffffffffffffffffffffffffffffffffffffff16141561126357600160009054906101000a900473ffffffffffffffffffffffffffffffffffffffff166000806101000a81548173ffffffffffffffffffffffffffffffffffffffff021916908373ffffffffffffffffffffffffffffffffffffffff1602179055505b565b600b5481565b60085481565b600c5481565b6000809054906101000a900473ffffffffffffffffffffffffffffffffffffffff1681565b600360009054906101000a900473ffffffffffffffffffffffffffffffffffffffff1673ffffffffffffffffffffffffffffffffffffffff163373ffffffffffffffffffffffffffffffffffffffff16141561135657600360009054906101000a900473ffffffffffffffffffffffffffffffffffffffff16600260006101000a81548173ffffffffffffffffffffffffffffffffffffffff021916908373ffffffffffffffffffffffffffffffffffffffff1602179055505b565b60136020528060005260406000206000915090505481565b600d5481565b60125481565b600260009054906101000a900473ffffffffffffffffffffffffffffffffffffffff1681565b600160009054906101000a900473ffffffffffffffffffffffffffffffffffffffff1681565b600360009054906101000a900473ffffffffffffffffffffffffffffffffffffffff1681565b60006203f480600d54014211151561140557600080fd5b600560009054906101000a900473ffffffffffffffffffffffffffffffffffffffff1673ffffffffffffffffffffffffffffffffffffffff1663112d6b346000604051602001526040518163ffffffff167c0100000000000000000000000000000000000000000000000000000000028152600401602060405180830381600087803b151561149357600080fd5b6102c65a03f115156114a457600080fd5b5050506040518051905015156114b957600080fd5b600090505b6007805490508110156114fe5760006007828154811015156114dc57fe5b90600052602060002090600202016001018190555080806001019150506114be565b600090505b60068054905081101561154357600060068281548110151561152157fe5b9060005260206000209060020201600101819055508080600101915050611503565b600560009054906101000a900473ffffffffffffffffffffffffffffffffffffffff1673ffffffffffffffffffffffffffffffffffffffff1663ec42f82f6040518163ffffffff167c0100000000000000000000000000000000000000000000000000000000028152600401600060405180830381600087803b15156115c857600080fd5b6102c65a03f115156115d957600080fd5b50505050565b6000809054906101000a900473ffffffffffffffffffffffffffffffffffffffff1673ffffffffffffffffffffffffffffffffffffffff163373ffffffffffffffffffffffffffffffffffffffff1614151561163a57600080fd5b600073ffffffffffffffffffffffffffffffffffffffff168173ffffffffffffffffffffffffffffffffffffffff161415151561167657600080fd5b80600160006101000a81548173ffffffffffffffffffffffffffffffffffffffff021916908373ffffffffffffffffffffffffffffffffffffffff16021790555050565b600560009054906101000a900473ffffffffffffffffffffffffffffffffffffffff1681565b60008060008060008060008094506000935087925060009150600090505b60068054905081101561196a5764174876e80060068281548110151561172057fe5b9060005260206000209060020201600001546008540281151561173f57fe5b048881151561174a57fe5b04915061176e61175d600a60045461198d565b611388611c8390919063ffffffff16565b8210151561179857611795600a8381151561178557fe5b048361199a90919063ffffffff16565b91505b6006818154811015156117a757fe5b9060005260206000209060020201600101548211151561183c576117f4826006838154811015156117d457fe5b906000526020600020906002020160010154611c6a90919063ffffffff16565b60068281548110151561180357fe5b90600052602060002090600202016001018190555061182b858361199a90919063ffffffff16565b945084600080905096509650611983565b61186f60068281548110151561184e57fe5b9060005260206000209060020201600101548661199a90919063ffffffff16565b945064174876e80060068281548110151561188657fe5b9060005260206000209060020201600001546008546006848154811015156118aa57fe5b90600052602060002090600202016001015402028115156118c757fe5b048401935061193564174876e8006006838154811015156118e457fe5b90600052602060002090600202016000015460085460068581548110151561190857fe5b906000526020600020906002020160010154020281151561192557fe5b0489611c6a90919063ffffffff16565b9750600060068281548110151561194857fe5b90600052602060002090600202016001018190555080806001019150506116fe565b8461197e8585611c6a90919063ffffffff16565b965096505b5050505050915091565b600081830a905092915050565b60008082840190508381101515156119ae57fe5b8091505092915050565b60008060008060008060008094506000935087925060009150600090505b600780549050811015611c475764174876e8006007828154811015156119f857fe5b90600052602060002090600202016000015460085402811515611a1757fe5b0488811515611a2257fe5b049150611a46611a35600a60045461198d565b611388611c8390919063ffffffff16565b82101515611a7057611a6d600a83811515611a5d57fe5b048361199a90919063ffffffff16565b91505b600781815481101515611a7f57fe5b90600052602060002090600202016001015482111515611b19578784019350611ad182600783815481101515611ab157fe5b906000526020600020906002020160010154611c6a90919063ffffffff16565b600782815481101515611ae057fe5b906000526020600020906002020160010181905550611b08858361199a90919063ffffffff16565b945084600080905096509650611c60565b611b4c600782815481101515611b2b57fe5b9060005260206000209060020201600101548661199a90919063ffffffff16565b945064174876e800600782815481101515611b6357fe5b906000526020600020906002020160000154600854600784815481101515611b8757fe5b9060005260206000209060020201600101540202811515611ba457fe5b0484019350611c1264174876e800600783815481101515611bc157fe5b906000526020600020906002020160000154600854600785815481101515611be557fe5b9060005260206000209060020201600101540202811515611c0257fe5b0489611c6a90919063ffffffff16565b97506000600782815481101515611c2557fe5b90600052602060002090600202016001018190555080806001019150506119d6565b84611c5b8585611c6a90919063ffffffff16565b965096505b5050505050915091565b6000828211151515611c7857fe5b818303905092915050565b6000806000841480611c955750600083145b15611ca35760009150611ccd565b82840290506000841480611cc15750828482811515611cbe57fe5b04145b1515611cc957fe5b8091505b50929150505600a165627a7a723058200599255e429828a1777d34d701feadc7898d872f1ab90e231b13ebdff9f1ca660029",
  "source": "pragma solidity ^0.4.19;\n/*standart library for uint\n*/\nlibrary SafeMath {\n  function mul(uint256 a, uint256 b) internal pure returns (uint256) {\n    if (a == 0 || b == 0){\n        return 0;\n    }\n    uint256 c = a * b;\n    assert(a == 0 || c / a == b);\n    return c;\n  }\n\n  function div(uint256 a, uint256 b) internal pure returns (uint256) {\n    // assert(b > 0); // Solidity automatically throws when dividing by 0\n    uint256 c = a / b;\n    // assert(a == b * c + a % b); // There is no case in which this doesn't hold\n    return c;\n  }\n\n  function sub(uint256 a, uint256 b) internal pure returns (uint256) {\n    assert(b <= a);\n    return a - b;\n  }\n\n  function add(uint256 a, uint256 b) internal pure returns (uint256) {\n    uint256 c = a + b;\n    assert(c >= a);\n    return c;\n  }\n}\n\n/*\ncontract to identify owner\n*/\ncontract Ownable {\n\n  address public owner;\n\n  address public newOwner;\n\n  address public techSupport;\n\n  address public newTechSupport;\n\n  modifier onlyOwner() {\n    require(msg.sender == owner);\n    _;\n  }\n\n  modifier onlyTechSupport() {\n    require(msg.sender == techSupport);\n    _;\n  }\n\n  function Ownable() public {\n    owner = msg.sender;\n  }\n\n  function transferOwnership(address _newOwner) public onlyOwner {\n    require(_newOwner != address(0));\n    newOwner = _newOwner;\n  }\n\n  function acceptOwnership() public {\n    if (msg.sender == newOwner) {\n      owner = newOwner;\n    }\n  }\n\n  function transferTechSupport (address _newSupport) public{\n    require (msg.sender == owner || msg.sender == techSupport);\n    newTechSupport = _newSupport;\n  }\n\n  function acceptSupport() public{\n    if(msg.sender == newTechSupport){\n      techSupport = newTechSupport;\n    }\n  }\n}\n\n/*\nERC - 20 token contract\n*/\ncontract VGCToken {\n  function setCrowdsaleContract (address _address) public {}\n  function burnTokens(address _address) public{}\n  function getCrowdsaleBalance() public view returns(uint) {}\n  function getRefBalSended () public view returns(bool){}\n  function sendCrowdsaleBalance (address _address, uint _value) public {}\n  function finishIco() public{}\n}\n\n//Crowdsale contract\ncontract Crowdsale is Ownable{\n\n  using SafeMath for uint;\n  //power function\n  function pow(uint256 a, uint256 b) internal pure returns (uint256){\n   return (a**b);\n  }\n\n  uint decimals = 2;\n  // Token contract address\n  VGCToken public token;\n\n  struct Ico{\n    uint bonus;\n    uint balance;\n  }\n  // Constructor\n  function Crowdsale(address _tokenAddress, address _addressOwner) public{\n    token = VGCToken(_tokenAddress);\n    owner = _addressOwner;\n    structurePreIco.push(Ico(55555555555,1000000*pow(10,decimals))); //80% bonus\n    structurePreIco.push(Ico(58823529411,1000000*pow(10,decimals))); //70\n    structurePreIco.push(Ico(62500000000,1000000*pow(10,decimals))); //60\n    structurePreIco.push(Ico(66666666666,1000000*pow(10,decimals))); //50\n    structurePreIco.push(Ico(71428571428,1000000*pow(10,decimals))); //40\n    structurePreIco.push(Ico(76923076923,1000000*pow(10,decimals))); //30\n\n\n    structureIco.push(Ico(83333333333,10000000*pow(10,decimals))); //20\n    structureIco.push(Ico(90909090909,10000000*pow(10,decimals))); //10\n    structureIco.push(Ico(100000000000,10000000*pow(10,decimals))); //0\n\n    techSupport = msg.sender;\n    token.setCrowdsaleContract(this);\n  }\n  //ICO structures (technical decision)\n  Ico[] public structurePreIco;\n  Ico[] public structureIco;\n    // Buy constants\n  uint public tokenPrice = 2000000000000000 / pow(10,decimals);\n  uint minDeposit = 100000000000000000; //0.1 ETH\n\n    // preIco constants\n  uint public preIcoStart = 1516320000; // 01/19/2018\n  uint public preIcoFinish = 1521590400; // 03/21/2018\n\n    // Ico constants\n  uint public icoStart = 1521590401; // 03/21/2018\n  uint public icoFinish = 1529625600; //06/21/2018\n  uint icoMinCap = 300000*pow(10,decimals);\n\n  //check is now preICO\n  function isPreIco(uint _time) constant public returns (bool){\n    if((preIcoStart <= _time) && (_time <= preIcoFinish)){\n      return true;\n    }\n    return false;\n  }\n\n  //check is now ICO\n  function isIco(uint _time) constant public returns (bool){\n    if((icoStart <= _time) && (_time <= icoFinish)){\n      return true;\n    }\n    return false;\n  }\n\n  //crowdsale variables\n  uint public preIcoTokensSold = 0;\n  uint public iCoTokensSold = 0;\n  uint public tokensSold = 0;\n  uint public ethCollected = 0;\n\n  //Ethereum investor balances (how much Eth they're donate to ICO)\n  mapping (address => uint) public investorBalances;\n\n  //function calculate how many tokens will be send to investor in preIco\n  function  buyIfPreIcoDiscount (uint _value) internal returns(uint,uint) {\n    uint buffer = 0;\n    uint bufferEth = 0;\n    uint bufferValue = _value;\n    uint res = 0;\n\n    for (uint i = 0; i<structurePreIco.length; i++){\n      res = _value/(tokenPrice*structurePreIco[i].bonus/100000000000);\n\n      //Purchase over 5,000 VGC and get extra 10% bonus\n      if(res >= (uint)(5000).mul(pow(10,decimals))){\n        res = res.add(res/10);\n      }\n      if (res<=structurePreIco[i].balance){\n        structurePreIco[i].balance = structurePreIco[i].balance.sub(res);\n        buffer = res.add(buffer);\n        return (buffer,0);\n      }else {\n        buffer = buffer.add(structurePreIco[i].balance);\n        bufferEth += structurePreIco[i].balance*tokenPrice*structurePreIco[i].bonus/100000000000;\n        _value = _value.sub(structurePreIco[i].balance*tokenPrice*structurePreIco[i].bonus/100000000000);\n        structurePreIco[i].balance = 0;\n        }\n      }\n    return  (buffer,bufferValue.sub(bufferEth));\n  }\n\n  //function calculate how many tokens will be send to investor in Ico\n  function  buyIfIcoDiscount (uint _value) internal returns(uint,uint) {\n    uint buffer = 0;\n    uint bufferEth = 0;\n    uint bufferValue = _value;\n    uint res = 0;\n\n    for (uint i = 0; i<structureIco.length; i++){\n      res = _value/(tokenPrice*structureIco[i].bonus/100000000000);\n\n      //Purchase over 5,000 VGC and get extra 10% bonus\n      if(res >= (uint)(5000).mul(pow(10,decimals))){\n        res = res.add(res/10);\n      }\n        if (res<=structureIco[i].balance){\n          bufferEth = bufferEth+_value;\n          structureIco[i].balance = structureIco[i].balance.sub(res);\n          buffer = res.add(buffer);\n          return (buffer,0);\n        }else {\n          buffer = buffer.add(structureIco[i].balance);\n          bufferEth += structureIco[i].balance*tokenPrice*structureIco[i].bonus/100000000000;\n          _value = _value.sub(structureIco[i].balance*tokenPrice*structureIco[i].bonus/100000000000);\n          structureIco[i].balance = 0;\n      }\n    }\n    return  (buffer,bufferValue.sub(bufferEth));\n  }\n\n  //fallback function (when investor send ether to contract)\n  function() public payable{\n    require(msg.value >= minDeposit);\n    require(isIco(now) || isPreIco(now));\n    require(buy(msg.sender,msg.value,now,false)); //redirect to func buy\n  }\n\n  bool public preIcoEnded = false;\n  //function buy Tokens\n  function buy(address _address, uint _value, uint _time, bool dashboard) internal returns (bool){\n    uint tokensForSend;\n    uint etherForSend;\n    if (isPreIco(_time)){\n      (tokensForSend,etherForSend) = buyIfPreIcoDiscount(_value);\n      assert (tokensForSend >= 50*pow(10,decimals));\n      preIcoTokensSold += tokensForSend;\n      if (etherForSend!=0 && !dashboard){\n        _address.transfer(etherForSend);\n      }\n      owner.transfer(this.balance);\n    }\n    if (isIco(_time)){\n      if(!preIcoEnded){\n        for (uint i = 0; i<structurePreIco.length; i++){\n          structureIco[structureIco.length-1].balance = structureIco[structureIco.length-1].balance.add(structurePreIco[i].balance);\n          structurePreIco[i].balance = 0;\n        }\n       preIcoEnded = true;\n      }\n      (tokensForSend,etherForSend) = buyIfIcoDiscount(_value);\n      assert (tokensForSend >= 50*pow(10,decimals));\n      iCoTokensSold += tokensForSend;\n\n      if (etherForSend!=0 && !dashboard){\n        _address.transfer(etherForSend);\n      }\n      investorBalances[_address] += _value.sub(etherForSend);\n\n      if (isIcoTrue()){\n        owner.transfer(this.balance);\n      }\n    }\n\n    tokensSold += tokensForSend;\n\n    token.sendCrowdsaleBalance(_address,tokensForSend);\n\n    ethCollected = ethCollected.add(_value.sub(etherForSend));\n\n    return true;\n  }\n\n  //someone can end ICO using this function (require 3 days after ICO end)\n  function finishIco() public {\n    require (now > icoFinish + 3 days);\n    require (token.getRefBalSended());\n    for (uint i = 0; i<structureIco.length; i++){\n      structureIco[i].balance = 0;\n    }\n    for (i = 0; i<structurePreIco.length; i++){\n      structurePreIco[i].balance = 0;\n    }\n    token.finishIco();\n  }\n\n  //function check is ICO complete (minCap exceeded)\n  function isIcoTrue() public constant returns (bool){\n    if (tokensSold >= icoMinCap){\n      return true;\n    }\n    return false;\n  }\n\n  //if ICO failed and now = ICO finished date +3 days then investor can withdrow his ether\n  function refund() public{\n    require (!isIcoTrue());\n    require (icoFinish + 3 days <= now);\n\n    token.burnTokens(msg.sender);\n    msg.sender.transfer(investorBalances[msg.sender]);\n    investorBalances[msg.sender] = 0;\n  }\n\n\n  //ICO cabinets function\n  function sendEtherManually(address _address, uint _value) public onlyTechSupport{\n    require(buy(_address,_value,now,true));\n  }\n\n  //ICO cabinets function, just for view\n  function tokensCount(uint _value) public view onlyTechSupport returns(uint res) {\n    if (isPreIco(now)){\n      (res,) = buyIfPreIcoDiscount(_value);\n    }\n    if (isIco(now)){\n      (res,) = buyIfIcoDiscount(_value);\n    }\n    return res;\n  }\n\n  function getEtherBalanceOnCrowdsale() public view returns(uint) {\n    return this.balance;\n  }\n}",
  "sourcePath": "/home/romuch/Desktop/VooglueTruffle/contracts/Crowdsale.sol",
  "compiler": {
    "name": "solc",
    "version": "0.4.19+commit.c4cbbb05.Emscripten.clang"
  },
  "schemaVersion": "1.0.1",
  "updatedAt": "2018-03-05T16:04:52.452Z"
}