{
  "contractName": "Ownable",
  "abi": [
    {
      "constant": false,
      "inputs": [
        {
          "name": "_newSupport",
          "type": "address"
        }
      ],
      "name": "transferTechSupport",
      "outputs": [],
      "payable": false,
      "stateMutability": "nonpayable",
      "type": "function"
    },
    {
      "constant": false,
      "inputs": [],
      "name": "acceptOwnership",
      "outputs": [],
      "payable": false,
      "stateMutability": "nonpayable",
      "type": "function"
    },
    {
      "constant": true,
      "inputs": [],
      "name": "owner",
      "outputs": [
        {
          "name": "",
          "type": "address"
        }
      ],
      "payable": false,
      "stateMutability": "view",
      "type": "function"
    },
    {
      "constant": false,
      "inputs": [],
      "name": "acceptSupport",
      "outputs": [],
      "payable": false,
      "stateMutability": "nonpayable",
      "type": "function"
    },
    {
      "constant": true,
      "inputs": [],
      "name": "techSupport",
      "outputs": [
        {
          "name": "",
          "type": "address"
        }
      ],
      "payable": false,
      "stateMutability": "view",
      "type": "function"
    },
    {
      "constant": true,
      "inputs": [],
      "name": "newOwner",
      "outputs": [
        {
          "name": "",
          "type": "address"
        }
      ],
      "payable": false,
      "stateMutability": "view",
      "type": "function"
    },
    {
      "constant": true,
      "inputs": [],
      "name": "newTechSupport",
      "outputs": [
        {
          "name": "",
          "type": "address"
        }
      ],
      "payable": false,
      "stateMutability": "view",
      "type": "function"
    },
    {
      "constant": false,
      "inputs": [
        {
          "name": "_newOwner",
          "type": "address"
        }
      ],
      "name": "transferOwnership",
      "outputs": [],
      "payable": false,
      "stateMutability": "nonpayable",
      "type": "function"
    },
    {
      "inputs": [],
      "payable": false,
      "stateMutability": "nonpayable",
      "type": "constructor"
    }
  ],
  "bytecode": "0x6060604052341561000f57600080fd5b336000806101000a81548173ffffffffffffffffffffffffffffffffffffffff021916908373ffffffffffffffffffffffffffffffffffffffff16021790555061068f8061005e6000396000f30060606040526004361061008e576000357c0100000000000000000000000000000000000000000000000000000000900463ffffffff1680632184fe2c1461009357806379ba5097146100cc5780638da5cb5b146100e1578063944126f414610136578063d459654a1461014b578063d4ee1d90146101a0578063e3d13592146101f5578063f2fde38b1461024a575b600080fd5b341561009e57600080fd5b6100ca600480803573ffffffffffffffffffffffffffffffffffffffff16906020019091905050610283565b005b34156100d757600080fd5b6100df61037a565b005b34156100ec57600080fd5b6100f4610435565b604051808273ffffffffffffffffffffffffffffffffffffffff1673ffffffffffffffffffffffffffffffffffffffff16815260200191505060405180910390f35b341561014157600080fd5b61014961045a565b005b341561015657600080fd5b61015e610516565b604051808273ffffffffffffffffffffffffffffffffffffffff1673ffffffffffffffffffffffffffffffffffffffff16815260200191505060405180910390f35b34156101ab57600080fd5b6101b361053c565b604051808273ffffffffffffffffffffffffffffffffffffffff1673ffffffffffffffffffffffffffffffffffffffff16815260200191505060405180910390f35b341561020057600080fd5b610208610562565b604051808273ffffffffffffffffffffffffffffffffffffffff1673ffffffffffffffffffffffffffffffffffffffff16815260200191505060405180910390f35b341561025557600080fd5b610281600480803573ffffffffffffffffffffffffffffffffffffffff16906020019091905050610588565b005b6000809054906101000a900473ffffffffffffffffffffffffffffffffffffffff1673ffffffffffffffffffffffffffffffffffffffff163373ffffffffffffffffffffffffffffffffffffffff16148061032b5750600260009054906101000a900473ffffffffffffffffffffffffffffffffffffffff1673ffffffffffffffffffffffffffffffffffffffff163373ffffffffffffffffffffffffffffffffffffffff16145b151561033657600080fd5b80600360006101000a81548173ffffffffffffffffffffffffffffffffffffffff021916908373ffffffffffffffffffffffffffffffffffffffff16021790555050565b600160009054906101000a900473ffffffffffffffffffffffffffffffffffffffff1673ffffffffffffffffffffffffffffffffffffffff163373ffffffffffffffffffffffffffffffffffffffff16141561043357600160009054906101000a900473ffffffffffffffffffffffffffffffffffffffff166000806101000a81548173ffffffffffffffffffffffffffffffffffffffff021916908373ffffffffffffffffffffffffffffffffffffffff1602179055505b565b6000809054906101000a900473ffffffffffffffffffffffffffffffffffffffff1681565b600360009054906101000a900473ffffffffffffffffffffffffffffffffffffffff1673ffffffffffffffffffffffffffffffffffffffff163373ffffffffffffffffffffffffffffffffffffffff16141561051457600360009054906101000a900473ffffffffffffffffffffffffffffffffffffffff16600260006101000a81548173ffffffffffffffffffffffffffffffffffffffff021916908373ffffffffffffffffffffffffffffffffffffffff1602179055505b565b600260009054906101000a900473ffffffffffffffffffffffffffffffffffffffff1681565b600160009054906101000a900473ffffffffffffffffffffffffffffffffffffffff1681565b600360009054906101000a900473ffffffffffffffffffffffffffffffffffffffff1681565b6000809054906101000a900473ffffffffffffffffffffffffffffffffffffffff1673ffffffffffffffffffffffffffffffffffffffff163373ffffffffffffffffffffffffffffffffffffffff161415156105e357600080fd5b600073ffffffffffffffffffffffffffffffffffffffff168173ffffffffffffffffffffffffffffffffffffffff161415151561061f57600080fd5b80600160006101000a81548173ffffffffffffffffffffffffffffffffffffffff021916908373ffffffffffffffffffffffffffffffffffffffff160217905550505600a165627a7a7230582010e59fec8c7bd3bbb4bc1c222006d85d586ac4985f344ea1b14167ae0fbc38140029",
  "source": "pragma solidity ^0.4.19;\n/*standart library for uint\n*/\nlibrary SafeMath {\n  function mul(uint256 a, uint256 b) internal pure returns (uint256) {\n    if (a == 0 || b == 0){\n        return 0;\n    }\n    uint256 c = a * b;\n    assert(a == 0 || c / a == b);\n    return c;\n  }\n\n  function div(uint256 a, uint256 b) internal pure returns (uint256) {\n    // assert(b > 0); // Solidity automatically throws when dividing by 0\n    uint256 c = a / b;\n    // assert(a == b * c + a % b); // There is no case in which this doesn't hold\n    return c;\n  }\n\n  function sub(uint256 a, uint256 b) internal pure returns (uint256) {\n    assert(b <= a);\n    return a - b;\n  }\n\n  function add(uint256 a, uint256 b) internal pure returns (uint256) {\n    uint256 c = a + b;\n    assert(c >= a);\n    return c;\n  }\n}\n\n/*\ncontract to identify owner\n*/\ncontract Ownable {\n\n  address public owner;\n\n  address public newOwner;\n\n  address public techSupport;\n\n  address public newTechSupport;\n\n  modifier onlyOwner() {\n    require(msg.sender == owner);\n    _;\n  }\n\n  modifier onlyTechSupport() {\n    require(msg.sender == techSupport);\n    _;\n  }\n\n  function Ownable() public {\n    owner = msg.sender;\n  }\n\n  function transferOwnership(address _newOwner) public onlyOwner {\n    require(_newOwner != address(0));\n    newOwner = _newOwner;\n  }\n\n  function acceptOwnership() public {\n    if (msg.sender == newOwner) {\n      owner = newOwner;\n    }\n  }\n\n  function transferTechSupport (address _newSupport) public{\n    require (msg.sender == owner || msg.sender == techSupport);\n    newTechSupport = _newSupport;\n  }\n\n  function acceptSupport() public{\n    if(msg.sender == newTechSupport){\n      techSupport = newTechSupport;\n    }\n  }\n}\n\n/*\nERC - 20 token contract\n*/\ncontract VGCToken is Ownable {\n  using SafeMath for uint;\n  // Triggered when tokens are transferred.\n  event Transfer(address indexed _from, address indexed _to, uint256 _value);\n\n  // Triggered whenever approve(address _spender, uint256 _value) is called.\n  event Approval(address indexed _owner, address indexed _spender, uint256 _value);\n\n  string public constant symbol = \"VGC\";\n  string public constant name = \"VooGlueC\";\n  uint8 public constant decimals = 2;\n  uint256 _totalSupply = 55000000*pow(10,decimals);\n\n  // Owner of this contract\n  address public owner;\n\n  // Balances for each account\n  mapping(address => uint256) balances;\n\n  // Owner of account approves the transfer of an amount to another account\n  mapping(address => mapping (address => uint256)) allowed;\n\n  // power function\n  function pow(uint256 a, uint256 b) internal pure returns (uint256){ //power function\n    return (a**b);\n  }\n\n  /*\n  standart ERC-20 function\n  get total supply of ERC-20 Tokens\n  */\n  function totalSupply() public view returns (uint256) {\n    return _totalSupply;\n  }\n\n  /*\n  standart ERC-20 function\n  get ERC-20 token balance from _address\n  */\n\n  function balanceOf(address _address) public constant returns (uint256 balance) {\n    return balances[_address];\n  }\n\n  /*\n  //standart ERC-20 function\n  transfer token from message sender to _to\n  */\n  function transfer(address _to, uint256 _amount) public returns (bool success) {\n    //you can't transfer token back to token contract\n    require(this != _to);\n    balances[msg.sender] = balances[msg.sender].sub(_amount);\n    balances[_to] = balances[_to].add(_amount);\n    Transfer(msg.sender,_to,_amount);\n    return true;\n  }\n\n  address public crowdsaleContract;\n  bool flag = false;\n  //connect to crowdsaleContract, can be use once\n  function setCrowdsaleContract (address _address) public {\n    require (!flag);\n    crowdsaleContract = _address;\n    reserveBalanceMap[_address] = true;\n    flag = true;\n  }\n\n  /*\n  standart ERC-20 function\n  */\n  function transferFrom(\n    address _from,\n    address _to,\n    uint256 _amount\n    )public returns (bool success) {\n      require(this != _to);\n\n      if (balances[_from] >= _amount\n       && allowed[_from][msg.sender] >= _amount\n       && _amount > 0\n       && balances[_to] + _amount > balances[_to]) {\n       balances[_from] -= _amount;\n       allowed[_from][msg.sender] -= _amount;\n       balances[_to] += _amount;\n       Transfer(_from, _to, _amount);\n    return true;\n    } else {\n    return false;\n    }\n  }\n\n  /*\n  standart ERC-20 function\n  approve your token balance to another address\n  */\n  function approve(address _spender, uint256 _amount)public returns (bool success) {\n    allowed[msg.sender][_spender] = _amount;\n    Approval(msg.sender, _spender, _amount);\n    return true;\n  }\n\n  //standart ERC-20 function\n  function allowance(address _owner, address _spender)public constant returns (uint256 remaining) {\n    return allowed[_owner][_spender];\n  }\n\n  //Constructor\n  function VGCToken(address _addressOwner) public {\n    owner = _addressOwner;\n    techSupport = msg.sender;\n    balances[this] = _totalSupply;\n    teamBalanceMap[_addressOwner] = true;\n    bountyBalanceMap[_addressOwner] = true;\n    advisorsBalanceMap[_addressOwner] = true;\n    referalFundBalanceMap[_addressOwner] = true;\n    reserveBalanceMap[_addressOwner] = true;\n  }\n  //make investor balance = 0\n  function burnTokens(address _address) public{\n    require(msg.sender == crowdsaleContract);\n    balances[_address] = 0;\n  }\n  // Tokens reserve (last screen in documentation)\n  mapping (address => bool) public teamBalanceMap;\n  mapping (address => bool) public bountyBalanceMap;\n  mapping (address => bool) public advisorsBalanceMap;\n  mapping (address => bool) public referalFundBalanceMap;\n  mapping (address => bool) public reserveBalanceMap;\n\n\n  uint private crowdsaleBalance = 36000000*pow(10,decimals);\n\n  function getCrowdsaleBalance() public view returns(uint) {\n    return crowdsaleBalance;\n  }\n\n\n  uint public teamBalance = 1000000*pow(10,decimals);\n  uint public bountyBalance = 3000000*pow(10,decimals);\n  uint public ownerBalance = 1000000*pow(10,decimals);\n  uint public advisorsBalance = 1000000*pow(10,decimals);\n  uint public referalFundBalance = 3000000*pow(10,decimals);\n  uint public reserveBalance = 10000000*pow(10,decimals);\n\n  function addTRA (address _address) public onlyOwner {\n    teamBalanceMap[_address] = true;\n  }\n\n  function removeTRA (address _address) public onlyOwner {\n    teamBalanceMap[_address] = false;\n  }\n\n  function addBRA (address _address) public onlyOwner {\n    bountyBalanceMap[_address] = true;\n  }\n\n  function removeBRA (address _address) public onlyOwner {\n    bountyBalanceMap[_address] = false;\n  }\n\n  function addARA (address _address) public onlyOwner {\n    advisorsBalanceMap[_address] = true;\n  }\n\n  function removeARA (address _address) public onlyOwner {\n    advisorsBalanceMap[_address] = false;\n  }\n\n  function addFRA (address _address) public onlyOwner {\n    referalFundBalanceMap[_address] = true;\n  }\n\n  function removeFRA (address _address) public onlyOwner {\n    referalFundBalanceMap[_address] = false;\n  }\n\n  function addRRA (address _address) public onlyOwner {\n    reserveBalanceMap[_address] = true;\n  }\n\n  function removeRRA (address _address) public onlyOwner {\n    reserveBalanceMap[_address] = false;\n  }\n\n  function sendTeamBalance (address _address, uint _value) public{\n    require(teamBalanceMap[msg.sender]);\n    teamBalance = teamBalance.sub(_value);\n    balances[this] = balances[this].sub(_value);\n    balances[_address] = balances[_address].add(_value);\n    Transfer(this,_address, _value);\n  }\n\n  function sendBountyBalance (address _address, uint _value) public{\n    require(bountyBalanceMap[msg.sender]);\n    bountyBalance = bountyBalance.sub(_value);\n    balances[this] = balances[this].sub(_value);\n    balances[_address] = balances[_address].add(_value);\n    Transfer(this,_address, _value);\n  }\n\n  function sendAdvisorsBalance (address _address, uint _value) public{\n    require(advisorsBalanceMap[msg.sender]);\n    advisorsBalance = advisorsBalance.sub(_value);\n    balances[this] = balances[this].sub(_value);\n    balances[_address] = balances[_address].add(_value);\n    Transfer(this,_address, _value);\n  }\n\n  function sendReferallFundBalance (address _address, uint _value) public{\n    require(referalFundBalanceMap[msg.sender]);\n    referalFundBalance = referalFundBalance.sub(_value);\n    balances[this] = balances[this].sub(_value);\n    balances[_address] = balances[_address].add(_value);\n    Transfer(this,_address, _value);\n  }\n\n  function sendReserveBalance (address _address, uint _value) public{\n    require(reserveBalanceMap[msg.sender]);\n    reserveBalance = reserveBalance.sub(_value);\n    balances[this] = balances[this].sub(_value);\n    balances[_address] = balances[_address].add(_value);\n    Transfer(this,_address, _value);\n  }\n\n  function sendOwnersBalance (address _address, uint _value) public onlyOwner{\n    ownerBalance = ownerBalance.sub(_value);\n    balances[this] = balances[this].sub(_value);\n    balances[_address] = balances[_address].add(_value);\n    Transfer(this,_address, _value);\n  }\n\n  function sendCrowdsaleBalance (address _address, uint _value) public {\n    require (msg.sender == crowdsaleContract);\n    crowdsaleBalance = crowdsaleBalance.sub(_value);\n    balances[this] = balances[this].sub(_value);\n    balances[_address] = balances[_address].add(_value);\n    Transfer(this,_address, _value);\n  }\n\n  bool private isReferralBalancesSended = false;\n\n  function getRefBalSended () public view returns(bool){\n      return isReferralBalancesSended;\n  }\n\n\n  // Dashboard function\n  function referralProgram (address[] _addresses, uint[] _values, uint _summary) public onlyTechSupport {\n    require (_summary <= getCrowdsaleBalance());\n    require(_addresses.length == _values.length);\n    balances[this] = balances[this].sub(_summary);\n    for (uint i = 0; i < _addresses.length; i++){\n      balances[_addresses[i]] = balances[_addresses[i]].add(_values[i]);\n      Transfer(this,_addresses[i],_values[i]);\n    }\n    isReferralBalancesSended = true;\n  }\n\n  // at the end of ico burn unsold tokens\n  function finishIco() public{\n      require(msg.sender == crowdsaleContract);\n      balances[this] = balances[this].sub(crowdsaleBalance);\n      Transfer(this,0,crowdsaleBalance);\n      _totalSupply = _totalSupply.sub(crowdsaleBalance);\n      crowdsaleBalance = 0;\n  }\n}",
  "sourcePath": "/home/romuch/Desktop/VooglueTruffle/contracts/VooglueToken.sol",
  "compiler": {
    "name": "solc",
    "version": "0.4.19+commit.c4cbbb05.Emscripten.clang"
  },
  "schemaVersion": "1.0.1",
  "updatedAt": "2018-03-05T16:04:51.530Z"
}