{
  "contractName": "VGCToken",
  "abi": [
    {
      "constant": true,
      "inputs": [],
      "name": "referalFundBalance",
      "outputs": [
        {
          "name": "",
          "type": "uint256"
        }
      ],
      "payable": false,
      "stateMutability": "view",
      "type": "function"
    },
    {
      "constant": true,
      "inputs": [],
      "name": "name",
      "outputs": [
        {
          "name": "",
          "type": "string"
        }
      ],
      "payable": false,
      "stateMutability": "view",
      "type": "function"
    },
    {
      "constant": false,
      "inputs": [
        {
          "name": "_spender",
          "type": "address"
        },
        {
          "name": "_amount",
          "type": "uint256"
        }
      ],
      "name": "approve",
      "outputs": [
        {
          "name": "success",
          "type": "bool"
        }
      ],
      "payable": false,
      "stateMutability": "nonpayable",
      "type": "function"
    },
    {
      "constant": true,
      "inputs": [],
      "name": "getRefBalSended",
      "outputs": [
        {
          "name": "",
          "type": "bool"
        }
      ],
      "payable": false,
      "stateMutability": "view",
      "type": "function"
    },
    {
      "constant": true,
      "inputs": [
        {
          "name": "",
          "type": "address"
        }
      ],
      "name": "bountyBalanceMap",
      "outputs": [
        {
          "name": "",
          "type": "bool"
        }
      ],
      "payable": false,
      "stateMutability": "view",
      "type": "function"
    },
    {
      "constant": true,
      "inputs": [],
      "name": "totalSupply",
      "outputs": [
        {
          "name": "",
          "type": "uint256"
        }
      ],
      "payable": false,
      "stateMutability": "view",
      "type": "function"
    },
    {
      "constant": false,
      "inputs": [
        {
          "name": "_address",
          "type": "address"
        }
      ],
      "name": "addFRA",
      "outputs": [],
      "payable": false,
      "stateMutability": "nonpayable",
      "type": "function"
    },
    {
      "constant": true,
      "inputs": [],
      "name": "getCrowdsaleBalance",
      "outputs": [
        {
          "name": "",
          "type": "uint256"
        }
      ],
      "payable": false,
      "stateMutability": "view",
      "type": "function"
    },
    {
      "constant": false,
      "inputs": [
        {
          "name": "_newSupport",
          "type": "address"
        }
      ],
      "name": "transferTechSupport",
      "outputs": [],
      "payable": false,
      "stateMutability": "nonpayable",
      "type": "function"
    },
    {
      "constant": false,
      "inputs": [
        {
          "name": "_from",
          "type": "address"
        },
        {
          "name": "_to",
          "type": "address"
        },
        {
          "name": "_amount",
          "type": "uint256"
        }
      ],
      "name": "transferFrom",
      "outputs": [
        {
          "name": "success",
          "type": "bool"
        }
      ],
      "payable": false,
      "stateMutability": "nonpayable",
      "type": "function"
    },
    {
      "constant": false,
      "inputs": [
        {
          "name": "_address",
          "type": "address"
        },
        {
          "name": "_value",
          "type": "uint256"
        }
      ],
      "name": "sendReserveBalance",
      "outputs": [],
      "payable": false,
      "stateMutability": "nonpayable",
      "type": "function"
    },
    {
      "constant": false,
      "inputs": [
        {
          "name": "_address",
          "type": "address"
        }
      ],
      "name": "addARA",
      "outputs": [],
      "payable": false,
      "stateMutability": "nonpayable",
      "type": "function"
    },
    {
      "constant": false,
      "inputs": [
        {
          "name": "_address",
          "type": "address"
        }
      ],
      "name": "removeRRA",
      "outputs": [],
      "payable": false,
      "stateMutability": "nonpayable",
      "type": "function"
    },
    {
      "constant": true,
      "inputs": [
        {
          "name": "",
          "type": "address"
        }
      ],
      "name": "advisorsBalanceMap",
      "outputs": [
        {
          "name": "",
          "type": "bool"
        }
      ],
      "payable": false,
      "stateMutability": "view",
      "type": "function"
    },
    {
      "constant": true,
      "inputs": [],
      "name": "decimals",
      "outputs": [
        {
          "name": "",
          "type": "uint8"
        }
      ],
      "payable": false,
      "stateMutability": "view",
      "type": "function"
    },
    {
      "constant": true,
      "inputs": [],
      "name": "crowdsaleContract",
      "outputs": [
        {
          "name": "",
          "type": "address"
        }
      ],
      "payable": false,
      "stateMutability": "view",
      "type": "function"
    },
    {
      "constant": false,
      "inputs": [
        {
          "name": "_address",
          "type": "address"
        },
        {
          "name": "_value",
          "type": "uint256"
        }
      ],
      "name": "sendCrowdsaleBalance",
      "outputs": [],
      "payable": false,
      "stateMutability": "nonpayable",
      "type": "function"
    },
    {
      "constant": false,
      "inputs": [
        {
          "name": "_address",
          "type": "address"
        },
        {
          "name": "_value",
          "type": "uint256"
        }
      ],
      "name": "sendAdvisorsBalance",
      "outputs": [],
      "payable": false,
      "stateMutability": "nonpayable",
      "type": "function"
    },
    {
      "constant": true,
      "inputs": [
        {
          "name": "",
          "type": "address"
        }
      ],
      "name": "teamBalanceMap",
      "outputs": [
        {
          "name": "",
          "type": "bool"
        }
      ],
      "payable": false,
      "stateMutability": "view",
      "type": "function"
    },
    {
      "constant": true,
      "inputs": [
        {
          "name": "",
          "type": "address"
        }
      ],
      "name": "referalFundBalanceMap",
      "outputs": [
        {
          "name": "",
          "type": "bool"
        }
      ],
      "payable": false,
      "stateMutability": "view",
      "type": "function"
    },
    {
      "constant": true,
      "inputs": [],
      "name": "advisorsBalance",
      "outputs": [
        {
          "name": "",
          "type": "uint256"
        }
      ],
      "payable": false,
      "stateMutability": "view",
      "type": "function"
    },
    {
      "constant": false,
      "inputs": [
        {
          "name": "_address",
          "type": "address"
        }
      ],
      "name": "setCrowdsaleContract",
      "outputs": [],
      "payable": false,
      "stateMutability": "nonpayable",
      "type": "function"
    },
    {
      "constant": true,
      "inputs": [
        {
          "name": "_address",
          "type": "address"
        }
      ],
      "name": "balanceOf",
      "outputs": [
        {
          "name": "balance",
          "type": "uint256"
        }
      ],
      "payable": false,
      "stateMutability": "view",
      "type": "function"
    },
    {
      "constant": false,
      "inputs": [],
      "name": "acceptOwnership",
      "outputs": [],
      "payable": false,
      "stateMutability": "nonpayable",
      "type": "function"
    },
    {
      "constant": false,
      "inputs": [
        {
          "name": "_addresses",
          "type": "address[]"
        },
        {
          "name": "_values",
          "type": "uint256[]"
        },
        {
          "name": "_summary",
          "type": "uint256"
        }
      ],
      "name": "referralProgram",
      "outputs": [],
      "payable": false,
      "stateMutability": "nonpayable",
      "type": "function"
    },
    {
      "constant": false,
      "inputs": [
        {
          "name": "_address",
          "type": "address"
        },
        {
          "name": "_value",
          "type": "uint256"
        }
      ],
      "name": "sendTeamBalance",
      "outputs": [],
      "payable": false,
      "stateMutability": "nonpayable",
      "type": "function"
    },
    {
      "constant": false,
      "inputs": [
        {
          "name": "_address",
          "type": "address"
        }
      ],
      "name": "removeBRA",
      "outputs": [],
      "payable": false,
      "stateMutability": "nonpayable",
      "type": "function"
    },
    {
      "constant": true,
      "inputs": [],
      "name": "teamBalance",
      "outputs": [
        {
          "name": "",
          "type": "uint256"
        }
      ],
      "payable": false,
      "stateMutability": "view",
      "type": "function"
    },
    {
      "constant": false,
      "inputs": [
        {
          "name": "_address",
          "type": "address"
        }
      ],
      "name": "addRRA",
      "outputs": [],
      "payable": false,
      "stateMutability": "nonpayable",
      "type": "function"
    },
    {
      "constant": true,
      "inputs": [],
      "name": "owner",
      "outputs": [
        {
          "name": "",
          "type": "address"
        }
      ],
      "payable": false,
      "stateMutability": "view",
      "type": "function"
    },
    {
      "constant": false,
      "inputs": [],
      "name": "acceptSupport",
      "outputs": [],
      "payable": false,
      "stateMutability": "nonpayable",
      "type": "function"
    },
    {
      "constant": true,
      "inputs": [],
      "name": "symbol",
      "outputs": [
        {
          "name": "",
          "type": "string"
        }
      ],
      "payable": false,
      "stateMutability": "view",
      "type": "function"
    },
    {
      "constant": false,
      "inputs": [
        {
          "name": "_address",
          "type": "address"
        },
        {
          "name": "_value",
          "type": "uint256"
        }
      ],
      "name": "sendOwnersBalance",
      "outputs": [],
      "payable": false,
      "stateMutability": "nonpayable",
      "type": "function"
    },
    {
      "constant": true,
      "inputs": [
        {
          "name": "",
          "type": "address"
        }
      ],
      "name": "reserveBalanceMap",
      "outputs": [
        {
          "name": "",
          "type": "bool"
        }
      ],
      "payable": false,
      "stateMutability": "view",
      "type": "function"
    },
    {
      "constant": false,
      "inputs": [
        {
          "name": "_address",
          "type": "address"
        },
        {
          "name": "_value",
          "type": "uint256"
        }
      ],
      "name": "sendBountyBalance",
      "outputs": [],
      "payable": false,
      "stateMutability": "nonpayable",
      "type": "function"
    },
    {
      "constant": true,
      "inputs": [],
      "name": "reserveBalance",
      "outputs": [
        {
          "name": "",
          "type": "uint256"
        }
      ],
      "payable": false,
      "stateMutability": "view",
      "type": "function"
    },
    {
      "constant": false,
      "inputs": [
        {
          "name": "_to",
          "type": "address"
        },
        {
          "name": "_amount",
          "type": "uint256"
        }
      ],
      "name": "transfer",
      "outputs": [
        {
          "name": "success",
          "type": "bool"
        }
      ],
      "payable": false,
      "stateMutability": "nonpayable",
      "type": "function"
    },
    {
      "constant": false,
      "inputs": [
        {
          "name": "_address",
          "type": "address"
        }
      ],
      "name": "burnTokens",
      "outputs": [],
      "payable": false,
      "stateMutability": "nonpayable",
      "type": "function"
    },
    {
      "constant": true,
      "inputs": [],
      "name": "ownerBalance",
      "outputs": [
        {
          "name": "",
          "type": "uint256"
        }
      ],
      "payable": false,
      "stateMutability": "view",
      "type": "function"
    },
    {
      "constant": false,
      "inputs": [
        {
          "name": "_address",
          "type": "address"
        }
      ],
      "name": "addBRA",
      "outputs": [],
      "payable": false,
      "stateMutability": "nonpayable",
      "type": "function"
    },
    {
      "constant": false,
      "inputs": [
        {
          "name": "_address",
          "type": "address"
        }
      ],
      "name": "removeFRA",
      "outputs": [],
      "payable": false,
      "stateMutability": "nonpayable",
      "type": "function"
    },
    {
      "constant": true,
      "inputs": [],
      "name": "bountyBalance",
      "outputs": [
        {
          "name": "",
          "type": "uint256"
        }
      ],
      "payable": false,
      "stateMutability": "view",
      "type": "function"
    },
    {
      "constant": true,
      "inputs": [],
      "name": "techSupport",
      "outputs": [
        {
          "name": "",
          "type": "address"
        }
      ],
      "payable": false,
      "stateMutability": "view",
      "type": "function"
    },
    {
      "constant": true,
      "inputs": [],
      "name": "newOwner",
      "outputs": [
        {
          "name": "",
          "type": "address"
        }
      ],
      "payable": false,
      "stateMutability": "view",
      "type": "function"
    },
    {
      "constant": false,
      "inputs": [
        {
          "name": "_address",
          "type": "address"
        }
      ],
      "name": "removeTRA",
      "outputs": [],
      "payable": false,
      "stateMutability": "nonpayable",
      "type": "function"
    },
    {
      "constant": false,
      "inputs": [
        {
          "name": "_address",
          "type": "address"
        }
      ],
      "name": "addTRA",
      "outputs": [],
      "payable": false,
      "stateMutability": "nonpayable",
      "type": "function"
    },
    {
      "constant": true,
      "inputs": [
        {
          "name": "_owner",
          "type": "address"
        },
        {
          "name": "_spender",
          "type": "address"
        }
      ],
      "name": "allowance",
      "outputs": [
        {
          "name": "remaining",
          "type": "uint256"
        }
      ],
      "payable": false,
      "stateMutability": "view",
      "type": "function"
    },
    {
      "constant": true,
      "inputs": [],
      "name": "newTechSupport",
      "outputs": [
        {
          "name": "",
          "type": "address"
        }
      ],
      "payable": false,
      "stateMutability": "view",
      "type": "function"
    },
    {
      "constant": false,
      "inputs": [
        {
          "name": "_address",
          "type": "address"
        }
      ],
      "name": "removeARA",
      "outputs": [],
      "payable": false,
      "stateMutability": "nonpayable",
      "type": "function"
    },
    {
      "constant": false,
      "inputs": [],
      "name": "finishIco",
      "outputs": [],
      "payable": false,
      "stateMutability": "nonpayable",
      "type": "function"
    },
    {
      "constant": false,
      "inputs": [
        {
          "name": "_newOwner",
          "type": "address"
        }
      ],
      "name": "transferOwnership",
      "outputs": [],
      "payable": false,
      "stateMutability": "nonpayable",
      "type": "function"
    },
    {
      "constant": false,
      "inputs": [
        {
          "name": "_address",
          "type": "address"
        },
        {
          "name": "_value",
          "type": "uint256"
        }
      ],
      "name": "sendReferallFundBalance",
      "outputs": [],
      "payable": false,
      "stateMutability": "nonpayable",
      "type": "function"
    },
    {
      "inputs": [
        {
          "name": "_addressOwner",
          "type": "address"
        }
      ],
      "payable": false,
      "stateMutability": "nonpayable",
      "type": "constructor"
    },
    {
      "anonymous": false,
      "inputs": [
        {
          "indexed": true,
          "name": "_from",
          "type": "address"
        },
        {
          "indexed": true,
          "name": "_to",
          "type": "address"
        },
        {
          "indexed": false,
          "name": "_value",
          "type": "uint256"
        }
      ],
      "name": "Transfer",
      "type": "event"
    },
    {
      "anonymous": false,
      "inputs": [
        {
          "indexed": true,
          "name": "_owner",
          "type": "address"
        },
        {
          "indexed": true,
          "name": "_spender",
          "type": "address"
        },
        {
          "indexed": false,
          "name": "_value",
          "type": "uint256"
        }
      ],
      "name": "Approval",
      "type": "event"
    }
  ],
  "bytecode": "0x606060405262000029600a600260ff16620004946401000000000262003799176401000000009004565b6303473bc0026004556000600860146101000a81548160ff02191690831515021790555062000072600a600260ff16620004946401000000000262003799176401000000009004565b630225510002600e55620000a0600a600260ff16620004946401000000000262003799176401000000009004565b620f424002600f55620000cd600a600260ff16620004946401000000000262003799176401000000009004565b622dc6c002601055620000fa600a600260ff16620004946401000000000262003799176401000000009004565b620f42400260115562000127600a600260ff16620004946401000000000262003799176401000000009004565b620f42400260125562000154600a600260ff16620004946401000000000262003799176401000000009004565b622dc6c00260135562000181600a600260ff16620004946401000000000262003799176401000000009004565b62989680026014556000601560006101000a81548160ff0219169083151502179055503415620001b057600080fd5b60405160208062003c8383398101604052808051906020019091905050336000806101000a81548173ffffffffffffffffffffffffffffffffffffffff021916908373ffffffffffffffffffffffffffffffffffffffff16021790555080600560006101000a81548173ffffffffffffffffffffffffffffffffffffffff021916908373ffffffffffffffffffffffffffffffffffffffff16021790555033600260006101000a81548173ffffffffffffffffffffffffffffffffffffffff021916908373ffffffffffffffffffffffffffffffffffffffff160217905550600454600660003073ffffffffffffffffffffffffffffffffffffffff1673ffffffffffffffffffffffffffffffffffffffff168152602001908152602001600020819055506001600960008373ffffffffffffffffffffffffffffffffffffffff1673ffffffffffffffffffffffffffffffffffffffff16815260200190815260200160002060006101000a81548160ff0219169083151502179055506001600a60008373ffffffffffffffffffffffffffffffffffffffff1673ffffffffffffffffffffffffffffffffffffffff16815260200190815260200160002060006101000a81548160ff0219169083151502179055506001600b60008373ffffffffffffffffffffffffffffffffffffffff1673ffffffffffffffffffffffffffffffffffffffff16815260200190815260200160002060006101000a81548160ff0219169083151502179055506001600c60008373ffffffffffffffffffffffffffffffffffffffff1673ffffffffffffffffffffffffffffffffffffffff16815260200190815260200160002060006101000a81548160ff0219169083151502179055506001600d60008373ffffffffffffffffffffffffffffffffffffffff1673ffffffffffffffffffffffffffffffffffffffff16815260200190815260200160002060006101000a81548160ff02191690831515021790555050620004a1565b600081830a905092915050565b6137d280620004b16000396000f300606060405260043610610272576000357c0100000000000000000000000000000000000000000000000000000000900463ffffffff16806301ddfa9d1461027757806306fdde03146102a0578063095ea7b31461032e578063112d6b34146103885780631482bd40146103b557806318160ddd14610406578063192134711461042f5780631b082009146104685780632184fe2c1461049157806323b872dd146104ca57806323e25f7d146105435780632a30b0b8146105855780632d1d9feb146105be5780633032f951146105f7578063313ce56714610648578063316163951461067757806340c3418c146106cc57806342c5d7ad1461070e5780634aa91fbc146107505780635b0d823a146107a15780636324af1f146107f25780636596cff31461081b57806370a082311461085457806379ba5097146108a15780637da0389d146108b657806380a973e61461095957806383c5e3c91461099b57806389e85217146109d45780638cf3a181146109fd5780638da5cb5b14610a36578063944126f414610a8b57806395d89b4114610aa05780639969b25614610b2e578063997d847314610b705780639f7a53a114610bc1578063a10954fe14610c03578063a9059cbb14610c2c578063b237f7d414610c86578063bedcf00314610cbf578063c2714a9714610ce8578063ca61295b14610d21578063d03b41a914610d5a578063d459654a14610d83578063d4ee1d9014610dd8578063d731a77914610e2d578063d7d8cdd514610e66578063dd62ed3e14610e9f578063e3d1359214610f0b578063e453631614610f60578063ec42f82f14610f99578063f2fde38b14610fae578063f6384cb814610fe7575b600080fd5b341561028257600080fd5b61028a611029565b6040518082815260200191505060405180910390f35b34156102ab57600080fd5b6102b361102f565b6040518080602001828103825283818151815260200191508051906020019080838360005b838110156102f35780820151818401526020810190506102d8565b50505050905090810190601f1680156103205780820380516001836020036101000a031916815260200191505b509250505060405180910390f35b341561033957600080fd5b61036e600480803573ffffffffffffffffffffffffffffffffffffffff16906020019091908035906020019091905050611068565b604051808215151515815260200191505060405180910390f35b341561039357600080fd5b61039b61115a565b604051808215151515815260200191505060405180910390f35b34156103c057600080fd5b6103ec600480803573ffffffffffffffffffffffffffffffffffffffff16906020019091905050611171565b604051808215151515815260200191505060405180910390f35b341561041157600080fd5b610419611191565b6040518082815260200191505060405180910390f35b341561043a57600080fd5b610466600480803573ffffffffffffffffffffffffffffffffffffffff1690602001909190505061119b565b005b341561047357600080fd5b61047b611251565b6040518082815260200191505060405180910390f35b341561049c57600080fd5b6104c8600480803573ffffffffffffffffffffffffffffffffffffffff1690602001909190505061125b565b005b34156104d557600080fd5b610529600480803573ffffffffffffffffffffffffffffffffffffffff1690602001909190803573ffffffffffffffffffffffffffffffffffffffff16906020019091908035906020019091905050611352565b604051808215151515815260200191505060405180910390f35b341561054e57600080fd5b610583600480803573ffffffffffffffffffffffffffffffffffffffff16906020019091908035906020019091905050611694565b005b341561059057600080fd5b6105bc600480803573ffffffffffffffffffffffffffffffffffffffff1690602001909190505061189a565b005b34156105c957600080fd5b6105f5600480803573ffffffffffffffffffffffffffffffffffffffff16906020019091905050611950565b005b341561060257600080fd5b61062e600480803573ffffffffffffffffffffffffffffffffffffffff16906020019091905050611a06565b604051808215151515815260200191505060405180910390f35b341561065357600080fd5b61065b611a26565b604051808260ff1660ff16815260200191505060405180910390f35b341561068257600080fd5b61068a611a2b565b604051808273ffffffffffffffffffffffffffffffffffffffff1673ffffffffffffffffffffffffffffffffffffffff16815260200191505060405180910390f35b34156106d757600080fd5b61070c600480803573ffffffffffffffffffffffffffffffffffffffff16906020019091908035906020019091905050611a51565b005b341561071957600080fd5b61074e600480803573ffffffffffffffffffffffffffffffffffffffff16906020019091908035906020019091905050611c5b565b005b341561075b57600080fd5b610787600480803573ffffffffffffffffffffffffffffffffffffffff16906020019091905050611e61565b604051808215151515815260200191505060405180910390f35b34156107ac57600080fd5b6107d8600480803573ffffffffffffffffffffffffffffffffffffffff16906020019091905050611e81565b604051808215151515815260200191505060405180910390f35b34156107fd57600080fd5b610805611ea1565b6040518082815260200191505060405180910390f35b341561082657600080fd5b610852600480803573ffffffffffffffffffffffffffffffffffffffff16906020019091905050611ea7565b005b341561085f57600080fd5b61088b600480803573ffffffffffffffffffffffffffffffffffffffff16906020019091905050611f7a565b6040518082815260200191505060405180910390f35b34156108ac57600080fd5b6108b4611fc3565b005b34156108c157600080fd5b6109576004808035906020019082018035906020019080806020026020016040519081016040528093929190818152602001838360200280828437820191505050505050919080359060200190820180359060200190808060200260200160405190810160405280939291908181526020018383602002808284378201915050505050509190803590602001909190505061207e565b005b341561096457600080fd5b610999600480803573ffffffffffffffffffffffffffffffffffffffff16906020019091908035906020019091905050612340565b005b34156109a657600080fd5b6109d2600480803573ffffffffffffffffffffffffffffffffffffffff16906020019091905050612546565b005b34156109df57600080fd5b6109e76125fc565b6040518082815260200191505060405180910390f35b3415610a0857600080fd5b610a34600480803573ffffffffffffffffffffffffffffffffffffffff16906020019091905050612602565b005b3415610a4157600080fd5b610a496126b8565b604051808273ffffffffffffffffffffffffffffffffffffffff1673ffffffffffffffffffffffffffffffffffffffff16815260200191505060405180910390f35b3415610a9657600080fd5b610a9e6126de565b005b3415610aab57600080fd5b610ab361279a565b6040518080602001828103825283818151815260200191508051906020019080838360005b83811015610af3578082015181840152602081019050610ad8565b50505050905090810190601f168015610b205780820380516001836020036101000a031916815260200191505b509250505060405180910390f35b3415610b3957600080fd5b610b6e600480803573ffffffffffffffffffffffffffffffffffffffff169060200190919080359060200190919050506127d3565b005b3415610b7b57600080fd5b610ba7600480803573ffffffffffffffffffffffffffffffffffffffff169060200190919050506129dc565b604051808215151515815260200191505060405180910390f35b3415610bcc57600080fd5b610c01600480803573ffffffffffffffffffffffffffffffffffffffff169060200190919080359060200190919050506129fc565b005b3415610c0e57600080fd5b610c16612c02565b6040518082815260200191505060405180910390f35b3415610c3757600080fd5b610c6c600480803573ffffffffffffffffffffffffffffffffffffffff16906020019091908035906020019091905050612c08565b604051808215151515815260200191505060405180910390f35b3415610c9157600080fd5b610cbd600480803573ffffffffffffffffffffffffffffffffffffffff16906020019091905050612dde565b005b3415610cca57600080fd5b610cd2612e82565b6040518082815260200191505060405180910390f35b3415610cf357600080fd5b610d1f600480803573ffffffffffffffffffffffffffffffffffffffff16906020019091905050612e88565b005b3415610d2c57600080fd5b610d58600480803573ffffffffffffffffffffffffffffffffffffffff16906020019091905050612f3e565b005b3415610d6557600080fd5b610d6d612ff4565b6040518082815260200191505060405180910390f35b3415610d8e57600080fd5b610d96612ffa565b604051808273ffffffffffffffffffffffffffffffffffffffff1673ffffffffffffffffffffffffffffffffffffffff16815260200191505060405180910390f35b3415610de357600080fd5b610deb613020565b604051808273ffffffffffffffffffffffffffffffffffffffff1673ffffffffffffffffffffffffffffffffffffffff16815260200191505060405180910390f35b3415610e3857600080fd5b610e64600480803573ffffffffffffffffffffffffffffffffffffffff16906020019091905050613046565b005b3415610e7157600080fd5b610e9d600480803573ffffffffffffffffffffffffffffffffffffffff169060200190919050506130fc565b005b3415610eaa57600080fd5b610ef5600480803573ffffffffffffffffffffffffffffffffffffffff1690602001909190803573ffffffffffffffffffffffffffffffffffffffff169060200190919050506131b2565b6040518082815260200191505060405180910390f35b3415610f1657600080fd5b610f1e613239565b604051808273ffffffffffffffffffffffffffffffffffffffff1673ffffffffffffffffffffffffffffffffffffffff16815260200191505060405180910390f35b3415610f6b57600080fd5b610f97600480803573ffffffffffffffffffffffffffffffffffffffff1690602001909190505061325f565b005b3415610fa457600080fd5b610fac613315565b005b3415610fb957600080fd5b610fe5600480803573ffffffffffffffffffffffffffffffffffffffff16906020019091905050613481565b005b3415610ff257600080fd5b611027600480803573ffffffffffffffffffffffffffffffffffffffff1690602001909190803590602001909190505061355c565b005b60135481565b6040805190810160405280600881526020017f566f6f476c75654300000000000000000000000000000000000000000000000081525081565b600081600760003373ffffffffffffffffffffffffffffffffffffffff1673ffffffffffffffffffffffffffffffffffffffff16815260200190815260200160002060008573ffffffffffffffffffffffffffffffffffffffff1673ffffffffffffffffffffffffffffffffffffffff168152602001908152602001600020819055508273ffffffffffffffffffffffffffffffffffffffff163373ffffffffffffffffffffffffffffffffffffffff167f8c5be1e5ebec7d5bd14f71427d1e84f3dd0314c0f7b2291e5b200ac8c7c3b925846040518082815260200191505060405180910390a36001905092915050565b6000601560009054906101000a900460ff16905090565b600a6020528060005260406000206000915054906101000a900460ff1681565b6000600454905090565b6000809054906101000a900473ffffffffffffffffffffffffffffffffffffffff1673ffffffffffffffffffffffffffffffffffffffff163373ffffffffffffffffffffffffffffffffffffffff161415156111f657600080fd5b6001600c60008373ffffffffffffffffffffffffffffffffffffffff1673ffffffffffffffffffffffffffffffffffffffff16815260200190815260200160002060006101000a81548160ff02191690831515021790555050565b6000600e54905090565b6000809054906101000a900473ffffffffffffffffffffffffffffffffffffffff1673ffffffffffffffffffffffffffffffffffffffff163373ffffffffffffffffffffffffffffffffffffffff1614806113035750600260009054906101000a900473ffffffffffffffffffffffffffffffffffffffff1673ffffffffffffffffffffffffffffffffffffffff163373ffffffffffffffffffffffffffffffffffffffff16145b151561130e57600080fd5b80600360006101000a81548173ffffffffffffffffffffffffffffffffffffffff021916908373ffffffffffffffffffffffffffffffffffffffff16021790555050565b60008273ffffffffffffffffffffffffffffffffffffffff163073ffffffffffffffffffffffffffffffffffffffff161415151561138f57600080fd5b81600660008673ffffffffffffffffffffffffffffffffffffffff1673ffffffffffffffffffffffffffffffffffffffff168152602001908152602001600020541015801561145a575081600760008673ffffffffffffffffffffffffffffffffffffffff1673ffffffffffffffffffffffffffffffffffffffff16815260200190815260200160002060003373ffffffffffffffffffffffffffffffffffffffff1673ffffffffffffffffffffffffffffffffffffffff1681526020019081526020016000205410155b80156114665750600082115b80156114f15750600660008473ffffffffffffffffffffffffffffffffffffffff1673ffffffffffffffffffffffffffffffffffffffff1681526020019081526020016000205482600660008673ffffffffffffffffffffffffffffffffffffffff1673ffffffffffffffffffffffffffffffffffffffff1681526020019081526020016000205401115b156116885781600660008673ffffffffffffffffffffffffffffffffffffffff1673ffffffffffffffffffffffffffffffffffffffff1681526020019081526020016000206000828254039250508190555081600760008673ffffffffffffffffffffffffffffffffffffffff1673ffffffffffffffffffffffffffffffffffffffff16815260200190815260200160002060003373ffffffffffffffffffffffffffffffffffffffff1673ffffffffffffffffffffffffffffffffffffffff1681526020019081526020016000206000828254039250508190555081600660008573ffffffffffffffffffffffffffffffffffffffff1673ffffffffffffffffffffffffffffffffffffffff168152602001908152602001600020600082825401925050819055508273ffffffffffffffffffffffffffffffffffffffff168473ffffffffffffffffffffffffffffffffffffffff167fddf252ad1be2c89b69c2b068fc378daa952ba7f163c4a11628f55a4df523b3ef846040518082815260200191505060405180910390a36001905061168d565b600090505b9392505050565b600d60003373ffffffffffffffffffffffffffffffffffffffff1673ffffffffffffffffffffffffffffffffffffffff16815260200190815260200160002060009054906101000a900460ff1615156116ec57600080fd5b6117018160145461376290919063ffffffff16565b60148190555061175981600660003073ffffffffffffffffffffffffffffffffffffffff1673ffffffffffffffffffffffffffffffffffffffff1681526020019081526020016000205461376290919063ffffffff16565b600660003073ffffffffffffffffffffffffffffffffffffffff1673ffffffffffffffffffffffffffffffffffffffff168152602001908152602001600020819055506117ee81600660008573ffffffffffffffffffffffffffffffffffffffff1673ffffffffffffffffffffffffffffffffffffffff1681526020019081526020016000205461377b90919063ffffffff16565b600660008473ffffffffffffffffffffffffffffffffffffffff1673ffffffffffffffffffffffffffffffffffffffff168152602001908152602001600020819055508173ffffffffffffffffffffffffffffffffffffffff163073ffffffffffffffffffffffffffffffffffffffff167fddf252ad1be2c89b69c2b068fc378daa952ba7f163c4a11628f55a4df523b3ef836040518082815260200191505060405180910390a35050565b6000809054906101000a900473ffffffffffffffffffffffffffffffffffffffff1673ffffffffffffffffffffffffffffffffffffffff163373ffffffffffffffffffffffffffffffffffffffff161415156118f557600080fd5b6001600b60008373ffffffffffffffffffffffffffffffffffffffff1673ffffffffffffffffffffffffffffffffffffffff16815260200190815260200160002060006101000a81548160ff02191690831515021790555050565b6000809054906101000a900473ffffffffffffffffffffffffffffffffffffffff1673ffffffffffffffffffffffffffffffffffffffff163373ffffffffffffffffffffffffffffffffffffffff161415156119ab57600080fd5b6000600d60008373ffffffffffffffffffffffffffffffffffffffff1673ffffffffffffffffffffffffffffffffffffffff16815260200190815260200160002060006101000a81548160ff02191690831515021790555050565b600b6020528060005260406000206000915054906101000a900460ff1681565b600281565b600860009054906101000a900473ffffffffffffffffffffffffffffffffffffffff1681565b600860009054906101000a900473ffffffffffffffffffffffffffffffffffffffff1673ffffffffffffffffffffffffffffffffffffffff163373ffffffffffffffffffffffffffffffffffffffff16141515611aad57600080fd5b611ac281600e5461376290919063ffffffff16565b600e81905550611b1a81600660003073ffffffffffffffffffffffffffffffffffffffff1673ffffffffffffffffffffffffffffffffffffffff1681526020019081526020016000205461376290919063ffffffff16565b600660003073ffffffffffffffffffffffffffffffffffffffff1673ffffffffffffffffffffffffffffffffffffffff16815260200190815260200160002081905550611baf81600660008573ffffffffffffffffffffffffffffffffffffffff1673ffffffffffffffffffffffffffffffffffffffff1681526020019081526020016000205461377b90919063ffffffff16565b600660008473ffffffffffffffffffffffffffffffffffffffff1673ffffffffffffffffffffffffffffffffffffffff168152602001908152602001600020819055508173ffffffffffffffffffffffffffffffffffffffff163073ffffffffffffffffffffffffffffffffffffffff167fddf252ad1be2c89b69c2b068fc378daa952ba7f163c4a11628f55a4df523b3ef836040518082815260200191505060405180910390a35050565b600b60003373ffffffffffffffffffffffffffffffffffffffff1673ffffffffffffffffffffffffffffffffffffffff16815260200190815260200160002060009054906101000a900460ff161515611cb357600080fd5b611cc88160125461376290919063ffffffff16565b601281905550611d2081600660003073ffffffffffffffffffffffffffffffffffffffff1673ffffffffffffffffffffffffffffffffffffffff1681526020019081526020016000205461376290919063ffffffff16565b600660003073ffffffffffffffffffffffffffffffffffffffff1673ffffffffffffffffffffffffffffffffffffffff16815260200190815260200160002081905550611db581600660008573ffffffffffffffffffffffffffffffffffffffff1673ffffffffffffffffffffffffffffffffffffffff1681526020019081526020016000205461377b90919063ffffffff16565b600660008473ffffffffffffffffffffffffffffffffffffffff1673ffffffffffffffffffffffffffffffffffffffff168152602001908152602001600020819055508173ffffffffffffffffffffffffffffffffffffffff163073ffffffffffffffffffffffffffffffffffffffff167fddf252ad1be2c89b69c2b068fc378daa952ba7f163c4a11628f55a4df523b3ef836040518082815260200191505060405180910390a35050565b60096020528060005260406000206000915054906101000a900460ff1681565b600c6020528060005260406000206000915054906101000a900460ff1681565b60125481565b600860149054906101000a900460ff16151515611ec357600080fd5b80600860006101000a81548173ffffffffffffffffffffffffffffffffffffffff021916908373ffffffffffffffffffffffffffffffffffffffff1602179055506001600d60008373ffffffffffffffffffffffffffffffffffffffff1673ffffffffffffffffffffffffffffffffffffffff16815260200190815260200160002060006101000a81548160ff0219169083151502179055506001600860146101000a81548160ff02191690831515021790555050565b6000600660008373ffffffffffffffffffffffffffffffffffffffff1673ffffffffffffffffffffffffffffffffffffffff168152602001908152602001600020549050919050565b600160009054906101000a900473ffffffffffffffffffffffffffffffffffffffff1673ffffffffffffffffffffffffffffffffffffffff163373ffffffffffffffffffffffffffffffffffffffff16141561207c57600160009054906101000a900473ffffffffffffffffffffffffffffffffffffffff166000806101000a81548173ffffffffffffffffffffffffffffffffffffffff021916908373ffffffffffffffffffffffffffffffffffffffff1602179055505b565b6000600260009054906101000a900473ffffffffffffffffffffffffffffffffffffffff1673ffffffffffffffffffffffffffffffffffffffff163373ffffffffffffffffffffffffffffffffffffffff161415156120dc57600080fd5b6120e4611251565b82111515156120f257600080fd5b8251845114151561210257600080fd5b61215482600660003073ffffffffffffffffffffffffffffffffffffffff1673ffffffffffffffffffffffffffffffffffffffff1681526020019081526020016000205461376290919063ffffffff16565b600660003073ffffffffffffffffffffffffffffffffffffffff1673ffffffffffffffffffffffffffffffffffffffff16815260200190815260200160002081905550600090505b835181101561231f5761222583828151811015156121b657fe5b906020019060200201516006600087858151811015156121d257fe5b9060200190602002015173ffffffffffffffffffffffffffffffffffffffff1673ffffffffffffffffffffffffffffffffffffffff1681526020019081526020016000205461377b90919063ffffffff16565b60066000868481518110151561223757fe5b9060200190602002015173ffffffffffffffffffffffffffffffffffffffff1673ffffffffffffffffffffffffffffffffffffffff16815260200190815260200160002081905550838181518110151561228d57fe5b9060200190602002015173ffffffffffffffffffffffffffffffffffffffff163073ffffffffffffffffffffffffffffffffffffffff167fddf252ad1be2c89b69c2b068fc378daa952ba7f163c4a11628f55a4df523b3ef85848151811015156122f357fe5b906020019060200201516040518082815260200191505060405180910390a3808060010191505061219c565b6001601560006101000a81548160ff02191690831515021790555050505050565b600960003373ffffffffffffffffffffffffffffffffffffffff1673ffffffffffffffffffffffffffffffffffffffff16815260200190815260200160002060009054906101000a900460ff16151561239857600080fd5b6123ad81600f5461376290919063ffffffff16565b600f8190555061240581600660003073ffffffffffffffffffffffffffffffffffffffff1673ffffffffffffffffffffffffffffffffffffffff1681526020019081526020016000205461376290919063ffffffff16565b600660003073ffffffffffffffffffffffffffffffffffffffff1673ffffffffffffffffffffffffffffffffffffffff1681526020019081526020016000208190555061249a81600660008573ffffffffffffffffffffffffffffffffffffffff1673ffffffffffffffffffffffffffffffffffffffff1681526020019081526020016000205461377b90919063ffffffff16565b600660008473ffffffffffffffffffffffffffffffffffffffff1673ffffffffffffffffffffffffffffffffffffffff168152602001908152602001600020819055508173ffffffffffffffffffffffffffffffffffffffff163073ffffffffffffffffffffffffffffffffffffffff167fddf252ad1be2c89b69c2b068fc378daa952ba7f163c4a11628f55a4df523b3ef836040518082815260200191505060405180910390a35050565b6000809054906101000a900473ffffffffffffffffffffffffffffffffffffffff1673ffffffffffffffffffffffffffffffffffffffff163373ffffffffffffffffffffffffffffffffffffffff161415156125a157600080fd5b6000600a60008373ffffffffffffffffffffffffffffffffffffffff1673ffffffffffffffffffffffffffffffffffffffff16815260200190815260200160002060006101000a81548160ff02191690831515021790555050565b600f5481565b6000809054906101000a900473ffffffffffffffffffffffffffffffffffffffff1673ffffffffffffffffffffffffffffffffffffffff163373ffffffffffffffffffffffffffffffffffffffff1614151561265d57600080fd5b6001600d60008373ffffffffffffffffffffffffffffffffffffffff1673ffffffffffffffffffffffffffffffffffffffff16815260200190815260200160002060006101000a81548160ff02191690831515021790555050565b600560009054906101000a900473ffffffffffffffffffffffffffffffffffffffff1681565b600360009054906101000a900473ffffffffffffffffffffffffffffffffffffffff1673ffffffffffffffffffffffffffffffffffffffff163373ffffffffffffffffffffffffffffffffffffffff16141561279857600360009054906101000a900473ffffffffffffffffffffffffffffffffffffffff16600260006101000a81548173ffffffffffffffffffffffffffffffffffffffff021916908373ffffffffffffffffffffffffffffffffffffffff1602179055505b565b6040805190810160405280600381526020017f564743000000000000000000000000000000000000000000000000000000000081525081565b6000809054906101000a900473ffffffffffffffffffffffffffffffffffffffff1673ffffffffffffffffffffffffffffffffffffffff163373ffffffffffffffffffffffffffffffffffffffff1614151561282e57600080fd5b6128438160115461376290919063ffffffff16565b60118190555061289b81600660003073ffffffffffffffffffffffffffffffffffffffff1673ffffffffffffffffffffffffffffffffffffffff1681526020019081526020016000205461376290919063ffffffff16565b600660003073ffffffffffffffffffffffffffffffffffffffff1673ffffffffffffffffffffffffffffffffffffffff1681526020019081526020016000208190555061293081600660008573ffffffffffffffffffffffffffffffffffffffff1673ffffffffffffffffffffffffffffffffffffffff1681526020019081526020016000205461377b90919063ffffffff16565b600660008473ffffffffffffffffffffffffffffffffffffffff1673ffffffffffffffffffffffffffffffffffffffff168152602001908152602001600020819055508173ffffffffffffffffffffffffffffffffffffffff163073ffffffffffffffffffffffffffffffffffffffff167fddf252ad1be2c89b69c2b068fc378daa952ba7f163c4a11628f55a4df523b3ef836040518082815260200191505060405180910390a35050565b600d6020528060005260406000206000915054906101000a900460ff1681565b600a60003373ffffffffffffffffffffffffffffffffffffffff1673ffffffffffffffffffffffffffffffffffffffff16815260200190815260200160002060009054906101000a900460ff161515612a5457600080fd5b612a698160105461376290919063ffffffff16565b601081905550612ac181600660003073ffffffffffffffffffffffffffffffffffffffff1673ffffffffffffffffffffffffffffffffffffffff1681526020019081526020016000205461376290919063ffffffff16565b600660003073ffffffffffffffffffffffffffffffffffffffff1673ffffffffffffffffffffffffffffffffffffffff16815260200190815260200160002081905550612b5681600660008573ffffffffffffffffffffffffffffffffffffffff1673ffffffffffffffffffffffffffffffffffffffff1681526020019081526020016000205461377b90919063ffffffff16565b600660008473ffffffffffffffffffffffffffffffffffffffff1673ffffffffffffffffffffffffffffffffffffffff168152602001908152602001600020819055508173ffffffffffffffffffffffffffffffffffffffff163073ffffffffffffffffffffffffffffffffffffffff167fddf252ad1be2c89b69c2b068fc378daa952ba7f163c4a11628f55a4df523b3ef836040518082815260200191505060405180910390a35050565b60145481565b60008273ffffffffffffffffffffffffffffffffffffffff163073ffffffffffffffffffffffffffffffffffffffff1614151515612c4557600080fd5b612c9782600660003373ffffffffffffffffffffffffffffffffffffffff1673ffffffffffffffffffffffffffffffffffffffff1681526020019081526020016000205461376290919063ffffffff16565b600660003373ffffffffffffffffffffffffffffffffffffffff1673ffffffffffffffffffffffffffffffffffffffff16815260200190815260200160002081905550612d2c82600660008673ffffffffffffffffffffffffffffffffffffffff1673ffffffffffffffffffffffffffffffffffffffff1681526020019081526020016000205461377b90919063ffffffff16565b600660008573ffffffffffffffffffffffffffffffffffffffff1673ffffffffffffffffffffffffffffffffffffffff168152602001908152602001600020819055508273ffffffffffffffffffffffffffffffffffffffff163373ffffffffffffffffffffffffffffffffffffffff167fddf252ad1be2c89b69c2b068fc378daa952ba7f163c4a11628f55a4df523b3ef846040518082815260200191505060405180910390a36001905092915050565b600860009054906101000a900473ffffffffffffffffffffffffffffffffffffffff1673ffffffffffffffffffffffffffffffffffffffff163373ffffffffffffffffffffffffffffffffffffffff16141515612e3a57600080fd5b6000600660008373ffffffffffffffffffffffffffffffffffffffff1673ffffffffffffffffffffffffffffffffffffffff1681526020019081526020016000208190555050565b60115481565b6000809054906101000a900473ffffffffffffffffffffffffffffffffffffffff1673ffffffffffffffffffffffffffffffffffffffff163373ffffffffffffffffffffffffffffffffffffffff16141515612ee357600080fd5b6001600a60008373ffffffffffffffffffffffffffffffffffffffff1673ffffffffffffffffffffffffffffffffffffffff16815260200190815260200160002060006101000a81548160ff02191690831515021790555050565b6000809054906101000a900473ffffffffffffffffffffffffffffffffffffffff1673ffffffffffffffffffffffffffffffffffffffff163373ffffffffffffffffffffffffffffffffffffffff16141515612f9957600080fd5b6000600c60008373ffffffffffffffffffffffffffffffffffffffff1673ffffffffffffffffffffffffffffffffffffffff16815260200190815260200160002060006101000a81548160ff02191690831515021790555050565b60105481565b600260009054906101000a900473ffffffffffffffffffffffffffffffffffffffff1681565b600160009054906101000a900473ffffffffffffffffffffffffffffffffffffffff1681565b6000809054906101000a900473ffffffffffffffffffffffffffffffffffffffff1673ffffffffffffffffffffffffffffffffffffffff163373ffffffffffffffffffffffffffffffffffffffff161415156130a157600080fd5b6000600960008373ffffffffffffffffffffffffffffffffffffffff1673ffffffffffffffffffffffffffffffffffffffff16815260200190815260200160002060006101000a81548160ff02191690831515021790555050565b6000809054906101000a900473ffffffffffffffffffffffffffffffffffffffff1673ffffffffffffffffffffffffffffffffffffffff163373ffffffffffffffffffffffffffffffffffffffff1614151561315757600080fd5b6001600960008373ffffffffffffffffffffffffffffffffffffffff1673ffffffffffffffffffffffffffffffffffffffff16815260200190815260200160002060006101000a81548160ff02191690831515021790555050565b6000600760008473ffffffffffffffffffffffffffffffffffffffff1673ffffffffffffffffffffffffffffffffffffffff16815260200190815260200160002060008373ffffffffffffffffffffffffffffffffffffffff1673ffffffffffffffffffffffffffffffffffffffff16815260200190815260200160002054905092915050565b600360009054906101000a900473ffffffffffffffffffffffffffffffffffffffff1681565b6000809054906101000a900473ffffffffffffffffffffffffffffffffffffffff1673ffffffffffffffffffffffffffffffffffffffff163373ffffffffffffffffffffffffffffffffffffffff161415156132ba57600080fd5b6000600b60008373ffffffffffffffffffffffffffffffffffffffff1673ffffffffffffffffffffffffffffffffffffffff16815260200190815260200160002060006101000a81548160ff02191690831515021790555050565b600860009054906101000a900473ffffffffffffffffffffffffffffffffffffffff1673ffffffffffffffffffffffffffffffffffffffff163373ffffffffffffffffffffffffffffffffffffffff1614151561337157600080fd5b6133c5600e54600660003073ffffffffffffffffffffffffffffffffffffffff1673ffffffffffffffffffffffffffffffffffffffff1681526020019081526020016000205461376290919063ffffffff16565b600660003073ffffffffffffffffffffffffffffffffffffffff1673ffffffffffffffffffffffffffffffffffffffff1681526020019081526020016000208190555060003073ffffffffffffffffffffffffffffffffffffffff167fddf252ad1be2c89b69c2b068fc378daa952ba7f163c4a11628f55a4df523b3ef600e546040518082815260200191505060405180910390a3613471600e5460045461376290919063ffffffff16565b6004819055506000600e81905550565b6000809054906101000a900473ffffffffffffffffffffffffffffffffffffffff1673ffffffffffffffffffffffffffffffffffffffff163373ffffffffffffffffffffffffffffffffffffffff161415156134dc57600080fd5b600073ffffffffffffffffffffffffffffffffffffffff168173ffffffffffffffffffffffffffffffffffffffff161415151561351857600080fd5b80600160006101000a81548173ffffffffffffffffffffffffffffffffffffffff021916908373ffffffffffffffffffffffffffffffffffffffff16021790555050565b600c60003373ffffffffffffffffffffffffffffffffffffffff1673ffffffffffffffffffffffffffffffffffffffff16815260200190815260200160002060009054906101000a900460ff1615156135b457600080fd5b6135c98160135461376290919063ffffffff16565b60138190555061362181600660003073ffffffffffffffffffffffffffffffffffffffff1673ffffffffffffffffffffffffffffffffffffffff1681526020019081526020016000205461376290919063ffffffff16565b600660003073ffffffffffffffffffffffffffffffffffffffff1673ffffffffffffffffffffffffffffffffffffffff168152602001908152602001600020819055506136b681600660008573ffffffffffffffffffffffffffffffffffffffff1673ffffffffffffffffffffffffffffffffffffffff1681526020019081526020016000205461377b90919063ffffffff16565b600660008473ffffffffffffffffffffffffffffffffffffffff1673ffffffffffffffffffffffffffffffffffffffff168152602001908152602001600020819055508173ffffffffffffffffffffffffffffffffffffffff163073ffffffffffffffffffffffffffffffffffffffff167fddf252ad1be2c89b69c2b068fc378daa952ba7f163c4a11628f55a4df523b3ef836040518082815260200191505060405180910390a35050565b600082821115151561377057fe5b818303905092915050565b600080828401905083811015151561378f57fe5b8091505092915050565b600081830a9050929150505600a165627a7a723058208a97f484e2d9cd10f38cab53041ffead43eca958bb49e78ed2696dc272d2a2b90029",
  "source": "pragma solidity ^0.4.19;\n/*standart library for uint\n*/\nlibrary SafeMath {\n  function mul(uint256 a, uint256 b) internal pure returns (uint256) {\n    if (a == 0 || b == 0){\n        return 0;\n    }\n    uint256 c = a * b;\n    assert(a == 0 || c / a == b);\n    return c;\n  }\n\n  function div(uint256 a, uint256 b) internal pure returns (uint256) {\n    // assert(b > 0); // Solidity automatically throws when dividing by 0\n    uint256 c = a / b;\n    // assert(a == b * c + a % b); // There is no case in which this doesn't hold\n    return c;\n  }\n\n  function sub(uint256 a, uint256 b) internal pure returns (uint256) {\n    assert(b <= a);\n    return a - b;\n  }\n\n  function add(uint256 a, uint256 b) internal pure returns (uint256) {\n    uint256 c = a + b;\n    assert(c >= a);\n    return c;\n  }\n}\n\n/*\ncontract to identify owner\n*/\ncontract Ownable {\n\n  address public owner;\n\n  address public newOwner;\n\n  address public techSupport;\n\n  address public newTechSupport;\n\n  modifier onlyOwner() {\n    require(msg.sender == owner);\n    _;\n  }\n\n  modifier onlyTechSupport() {\n    require(msg.sender == techSupport);\n    _;\n  }\n\n  function Ownable() public {\n    owner = msg.sender;\n  }\n\n  function transferOwnership(address _newOwner) public onlyOwner {\n    require(_newOwner != address(0));\n    newOwner = _newOwner;\n  }\n\n  function acceptOwnership() public {\n    if (msg.sender == newOwner) {\n      owner = newOwner;\n    }\n  }\n\n  function transferTechSupport (address _newSupport) public{\n    require (msg.sender == owner || msg.sender == techSupport);\n    newTechSupport = _newSupport;\n  }\n\n  function acceptSupport() public{\n    if(msg.sender == newTechSupport){\n      techSupport = newTechSupport;\n    }\n  }\n}\n\n/*\nERC - 20 token contract\n*/\ncontract VGCToken is Ownable {\n  using SafeMath for uint;\n  // Triggered when tokens are transferred.\n  event Transfer(address indexed _from, address indexed _to, uint256 _value);\n\n  // Triggered whenever approve(address _spender, uint256 _value) is called.\n  event Approval(address indexed _owner, address indexed _spender, uint256 _value);\n\n  string public constant symbol = \"VGC\";\n  string public constant name = \"VooGlueC\";\n  uint8 public constant decimals = 2;\n  uint256 _totalSupply = 55000000*pow(10,decimals);\n\n  // Owner of this contract\n  address public owner;\n\n  // Balances for each account\n  mapping(address => uint256) balances;\n\n  // Owner of account approves the transfer of an amount to another account\n  mapping(address => mapping (address => uint256)) allowed;\n\n  // power function\n  function pow(uint256 a, uint256 b) internal pure returns (uint256){ //power function\n    return (a**b);\n  }\n\n  /*\n  standart ERC-20 function\n  get total supply of ERC-20 Tokens\n  */\n  function totalSupply() public view returns (uint256) {\n    return _totalSupply;\n  }\n\n  /*\n  standart ERC-20 function\n  get ERC-20 token balance from _address\n  */\n\n  function balanceOf(address _address) public constant returns (uint256 balance) {\n    return balances[_address];\n  }\n\n  /*\n  //standart ERC-20 function\n  transfer token from message sender to _to\n  */\n  function transfer(address _to, uint256 _amount) public returns (bool success) {\n    //you can't transfer token back to token contract\n    require(this != _to);\n    balances[msg.sender] = balances[msg.sender].sub(_amount);\n    balances[_to] = balances[_to].add(_amount);\n    Transfer(msg.sender,_to,_amount);\n    return true;\n  }\n\n  address public crowdsaleContract;\n  bool flag = false;\n  //connect to crowdsaleContract, can be use once\n  function setCrowdsaleContract (address _address) public {\n    require (!flag);\n    crowdsaleContract = _address;\n    reserveBalanceMap[_address] = true;\n    flag = true;\n  }\n\n  /*\n  standart ERC-20 function\n  */\n  function transferFrom(\n    address _from,\n    address _to,\n    uint256 _amount\n    )public returns (bool success) {\n      require(this != _to);\n\n      if (balances[_from] >= _amount\n       && allowed[_from][msg.sender] >= _amount\n       && _amount > 0\n       && balances[_to] + _amount > balances[_to]) {\n       balances[_from] -= _amount;\n       allowed[_from][msg.sender] -= _amount;\n       balances[_to] += _amount;\n       Transfer(_from, _to, _amount);\n    return true;\n    } else {\n    return false;\n    }\n  }\n\n  /*\n  standart ERC-20 function\n  approve your token balance to another address\n  */\n  function approve(address _spender, uint256 _amount)public returns (bool success) {\n    allowed[msg.sender][_spender] = _amount;\n    Approval(msg.sender, _spender, _amount);\n    return true;\n  }\n\n  //standart ERC-20 function\n  function allowance(address _owner, address _spender)public constant returns (uint256 remaining) {\n    return allowed[_owner][_spender];\n  }\n\n  //Constructor\n  function VGCToken(address _addressOwner) public {\n    owner = _addressOwner;\n    techSupport = msg.sender;\n    balances[this] = _totalSupply;\n    teamBalanceMap[_addressOwner] = true;\n    bountyBalanceMap[_addressOwner] = true;\n    advisorsBalanceMap[_addressOwner] = true;\n    referalFundBalanceMap[_addressOwner] = true;\n    reserveBalanceMap[_addressOwner] = true;\n  }\n  //make investor balance = 0\n  function burnTokens(address _address) public{\n    require(msg.sender == crowdsaleContract);\n    balances[_address] = 0;\n  }\n  // Tokens reserve (last screen in documentation)\n  mapping (address => bool) public teamBalanceMap;\n  mapping (address => bool) public bountyBalanceMap;\n  mapping (address => bool) public advisorsBalanceMap;\n  mapping (address => bool) public referalFundBalanceMap;\n  mapping (address => bool) public reserveBalanceMap;\n\n\n  uint private crowdsaleBalance = 36000000*pow(10,decimals);\n\n  function getCrowdsaleBalance() public view returns(uint) {\n    return crowdsaleBalance;\n  }\n\n\n  uint public teamBalance = 1000000*pow(10,decimals);\n  uint public bountyBalance = 3000000*pow(10,decimals);\n  uint public ownerBalance = 1000000*pow(10,decimals);\n  uint public advisorsBalance = 1000000*pow(10,decimals);\n  uint public referalFundBalance = 3000000*pow(10,decimals);\n  uint public reserveBalance = 10000000*pow(10,decimals);\n\n  function addTRA (address _address) public onlyOwner {\n    teamBalanceMap[_address] = true;\n  }\n\n  function removeTRA (address _address) public onlyOwner {\n    teamBalanceMap[_address] = false;\n  }\n\n  function addBRA (address _address) public onlyOwner {\n    bountyBalanceMap[_address] = true;\n  }\n\n  function removeBRA (address _address) public onlyOwner {\n    bountyBalanceMap[_address] = false;\n  }\n\n  function addARA (address _address) public onlyOwner {\n    advisorsBalanceMap[_address] = true;\n  }\n\n  function removeARA (address _address) public onlyOwner {\n    advisorsBalanceMap[_address] = false;\n  }\n\n  function addFRA (address _address) public onlyOwner {\n    referalFundBalanceMap[_address] = true;\n  }\n\n  function removeFRA (address _address) public onlyOwner {\n    referalFundBalanceMap[_address] = false;\n  }\n\n  function addRRA (address _address) public onlyOwner {\n    reserveBalanceMap[_address] = true;\n  }\n\n  function removeRRA (address _address) public onlyOwner {\n    reserveBalanceMap[_address] = false;\n  }\n\n  function sendTeamBalance (address _address, uint _value) public{\n    require(teamBalanceMap[msg.sender]);\n    teamBalance = teamBalance.sub(_value);\n    balances[this] = balances[this].sub(_value);\n    balances[_address] = balances[_address].add(_value);\n    Transfer(this,_address, _value);\n  }\n\n  function sendBountyBalance (address _address, uint _value) public{\n    require(bountyBalanceMap[msg.sender]);\n    bountyBalance = bountyBalance.sub(_value);\n    balances[this] = balances[this].sub(_value);\n    balances[_address] = balances[_address].add(_value);\n    Transfer(this,_address, _value);\n  }\n\n  function sendAdvisorsBalance (address _address, uint _value) public{\n    require(advisorsBalanceMap[msg.sender]);\n    advisorsBalance = advisorsBalance.sub(_value);\n    balances[this] = balances[this].sub(_value);\n    balances[_address] = balances[_address].add(_value);\n    Transfer(this,_address, _value);\n  }\n\n  function sendReferallFundBalance (address _address, uint _value) public{\n    require(referalFundBalanceMap[msg.sender]);\n    referalFundBalance = referalFundBalance.sub(_value);\n    balances[this] = balances[this].sub(_value);\n    balances[_address] = balances[_address].add(_value);\n    Transfer(this,_address, _value);\n  }\n\n  function sendReserveBalance (address _address, uint _value) public{\n    require(reserveBalanceMap[msg.sender]);\n    reserveBalance = reserveBalance.sub(_value);\n    balances[this] = balances[this].sub(_value);\n    balances[_address] = balances[_address].add(_value);\n    Transfer(this,_address, _value);\n  }\n\n  function sendOwnersBalance (address _address, uint _value) public onlyOwner{\n    ownerBalance = ownerBalance.sub(_value);\n    balances[this] = balances[this].sub(_value);\n    balances[_address] = balances[_address].add(_value);\n    Transfer(this,_address, _value);\n  }\n\n  function sendCrowdsaleBalance (address _address, uint _value) public {\n    require (msg.sender == crowdsaleContract);\n    crowdsaleBalance = crowdsaleBalance.sub(_value);\n    balances[this] = balances[this].sub(_value);\n    balances[_address] = balances[_address].add(_value);\n    Transfer(this,_address, _value);\n  }\n\n  bool private isReferralBalancesSended = false;\n\n  function getRefBalSended () public view returns(bool){\n      return isReferralBalancesSended;\n  }\n\n\n  // Dashboard function\n  function referralProgram (address[] _addresses, uint[] _values, uint _summary) public onlyTechSupport {\n    require (_summary <= getCrowdsaleBalance());\n    require(_addresses.length == _values.length);\n    balances[this] = balances[this].sub(_summary);\n    for (uint i = 0; i < _addresses.length; i++){\n      balances[_addresses[i]] = balances[_addresses[i]].add(_values[i]);\n      Transfer(this,_addresses[i],_values[i]);\n    }\n    isReferralBalancesSended = true;\n  }\n\n  // at the end of ico burn unsold tokens\n  function finishIco() public{\n      require(msg.sender == crowdsaleContract);\n      balances[this] = balances[this].sub(crowdsaleBalance);\n      Transfer(this,0,crowdsaleBalance);\n      _totalSupply = _totalSupply.sub(crowdsaleBalance);\n      crowdsaleBalance = 0;\n  }\n}",
  "sourcePath": "/home/romuch/Desktop/VooglueTruffle/contracts/VooglueToken.sol",
  "compiler": {
    "name": "solc",
    "version": "0.4.19+commit.c4cbbb05.Emscripten.clang"
  },
  "schemaVersion": "1.0.1",
  "updatedAt": "2018-03-05T16:04:52.438Z"
}